:020000040800F2
:100000003005002019120008E1110008E311000872
:10001000E5110008E7110008E911000800000000E0
:10002000000000000000000000000000EB110008CC
:10003000ED11000800000000EF110008F1110008A8
:100040004D120008511200085512000859120008FC
:100050005D120008611200086512000869120008AC
:100060006D1200087112000875120008791200085C
:100070007D1200088112000885120008891200080C
:100080008D120008911200089512000899120008BC
:100090009D120008A1120008A5120008A91200086C
:1000A000AD120008B1120008B5120008B91200081C
:1000B000BD120008C1120008C5120008C9120008CC
:1000C000CD120008D1120008D5120008D91200087C
:1000D000DD120008E1120008E5120008E91200082C
:1000E000ED120008F1120008F51200082DE9F8439E
:1000F000040016D02078DFF87064C10713D570684B
:1001000000F00C00042807D0706800F00C000828EC
:1001100041D17068C1033ED53068810303D5606862
:10012000002800F064812078DFF84C74810719D52D
:10013000706810F00C0F07D0706800F00C000828F1
:1001400061D17068C1035ED43068810703D520692E
:10015000012840F04C813168606921F0F80141EAE2
:10016000C00131602178080740F18180A069DFF883
:100170000C14002800F0A68001220A6000F032FA78
:100180000546706A810763D400F02CFA401B0228F0
:10019000F7D903202EE16068B0F5803F04D13068C4
:1001A00040F48030306014E008B930680AE0B0F5FF
:1001B000A02F306806D140F480203060316841F4CF
:1001C000803105E020F480303060316821F48021F6
:1001D0003160606858B100F005FA05463068810367
:1001E000A1D400F0FFF9401B6528F7D3D1E700F058
:1001F000F9F905463068810395D500F0F3F9401B05
:100200006528F7D3C5E72069A8B10121396000F05E
:10021000E9F905463068810705D400F0E3F9401B91
:100220000228F7D9B5E73068616920F0F80040EAA4
:10023000C100306096E7386000F0D4F905463168B7
:1002400088078FD500F0CEF9401B0228F7D9A0E728
:10025000DFF818030168C9084FF47A72B1FBF2F2B3
:10026000009200BF0098411E00280091F9D120782B
:1002700041076ED5F0690025C10009D4F06940F04E
:100280008050F0610125F06900F0805000900098E6
:10029000DFF8EC82D8F80000C10520D4D8F80000BF
:1002A00040F48070C8F8000000F09CF98146D8F84E
:1002B0000000C10513D400F095F9A0EB09006528F2
:1002C000F5D366E7086000F08DF90546706A81078E
:1002D000CDD500F087F9401B0228F7D959E7E0682F
:1002E000012808D008B9306A09E00528306A06D12B
:1002F00040F004003062306A40F0010005E0400840
:1003000040003062306A20F00400306241F28938E7
:10031000E06860B100F066F98146306A810713D465
:1003200000F060F9A0EB09004045F6D331E700F09A
:1003300059F98146306A810706D500F053F9A0EBE0
:1003400009004045F6D324E71DB1F06920F0805044
:10035000F061E06900284CD0716801F00C010829B7
:1003600038D002282AD100F047F8054630688101CC
:1003700005D500F037F9401B0228F7D909E7206AB4
:10038000B0F5803F05D17168A06821F400310143C8
:1003900071607268206A616A22F4741202430A432F
:1003A0007260012000F029F804463068810120D4F1
:1003B00000F018F9001B0228F7D9EAE600F01CF853
:1003C00004463068810114D500F00CF9001B0228A6
:1003D000F7D9DEE601280AD07068226A00F480317D
:1003E000914202BF00F47010616A884201D001207E
:1003F00000E00020BDE8F2830020386600F0F2B88B
:100400002DE9F041040088464ED05E4E00F077F8AA
:1004100002D200F06FF847D12068534D810712D502
:10042000400703D5696841F4E061696020780107FD
:1004300003D5686840F4605068606968A06821F07E
:10044000F001014369602178C80725D5606801285B
:1004500002D129688A0303E00228296802D18A01AF
:1004600002D421E08A071FD56968890840EA810023
:10047000686000F0B7F807466868616800F00C0033
:10048000B0EB810F08D000F0ADF8C01B41F289310C
:100490008842F1D303202BE0306800F0070080454C
:1004A00004D200F027F801D0012021E02078410794
:1004B00005D56A68E06822F4E06202436A60217848
:1004C000080706D56968206921F4605141EAC00136
:1004D000696000F019F86A682B49244BC2F30312D3
:1004E000895CC84018602348006800F081F800204B
:1004F000BDE8F0813168C90848EAC101316030685F
:1005000000F0070040457047204919480A6802F08A
:100510000C03082B00D0704710B500BF1EA4C2F317
:100520008343D203E35C08D5096858431EA3C1F393
:1005300040415A5CB0FBF2F010BD184614494843E4
:1005400010BD0A48114A006813681249C3F3022219
:1005500006E006480D4A006813680E49C3F3C2223C
:10056000895CC84070470000001002400C00002069
:1005700000127A000800002000004242800442423B
:1005800000700040002002400812000804100240E1
:1005900000093D004412000802030405060708098B
:1005A0000A0B0C0D0E0F1010010230B4002513E0E1
:1005B00050F8042BD30744BFA9F101039A18091F6F
:1005C000042942F8045BFAD213468C0744BF158015
:1005D0009B1CC90748BF1D7050F8041B0029E7D1B8
:1005E00030BC704701484068704700BF00000020E1
:1005F00038B50D4D0D4B2A7804464FF47A711868C2
:10060000B1FBF2F2B0FBF2F000F049F850B9102C57
:1006100008D2002221464FF0FF3000F023F8AC60F2
:10062000002032BD012032BD000000200C0000205F
:100630000901020002D4244881547047234B02F080
:100640000F021A4402F8041C7047214B19684FF638
:10065000FF020002114000F4E06008431D49084316
:100660001860704770B51A4B1C68C4F3022301244C
:10067000C3F10705052D2EBF0F2504FA05F56D1EE4
:100680001E1D072E34BF0023DB1E2940994004FAAB
:1006900003F3BDE870405B1E1A401143C8E710B574
:1006A000401EB0F1807F01D3012010BD0A4C606074
:1006B0000F214FF0FF30FFF7BBFF0021A1600720A3
:1006C0002060002010BD000000E400E018ED00E014
:1006D0000CED00E00000FA0510E000E00220687078
:1006E000211D206800F089F80120A872A870E87028
:1006F00028716871A871E8712872687268700020AA
:1007000032BD38B5040001D1012032BD00F006F839
:1007100018B900F06EF800F05BF9DFE704F13C0572
:1007200068787047002084F83C002846704770B510
:1007300000F058F801D1022070BD012084F83C007F
:1007400032B1042A15D0082A25D00C2A34D045E02D
:10075000206800F088F82168886940F00800886106
:10076000886920F0040088618A69306902438A61DF
:1007700035E0206800F09CF82068816941F4006150
:100780008161816921F4806181618169326941EA15
:100790000221816123E0206800F0B3F82168C86974
:1007A00040F00800C861C86920F00400C861CA6947
:1007B00030690243CA6112E0206800F0CAF820687C
:1007C000C16941F40061C161C16921F48061C16105
:1007D000C169326941EA0221C16100E00125FFF7E8
:1007E000A1FF70BD0446002594F83C0001280E4688
:1007F0007047002129702046704770B5654E036828
:10080000654C664DB04218BFB0F1804F03D0A8428E
:1008100018BFA04209D14A6823F070031343B042C5
:100820001CBFB0F1804FA84201D0A04203D1CA68DA
:1008300023F4407313434A6923F080031343036096
:10084000B0428B68C3620A68826202D10969544A65
:100850001160012343610169CA0703D50169490891
:100860004900016170BD70B5066A026A5208520003
:10087000026226F00206446885690B688A6825F0E2
:1008800073051D431643434B98420BD1CA684B690D
:1008900026F0080624F4407416438A691C4326F0A7
:1008A000040614434460856149684163066270BD73
:1008B00070B5056A026A374E22F01002026225F016
:1008C0002005436884690A6824F4E64444EA022463
:1008D0008A68B04245EA02150DD1CA684E6925F012
:1008E000800545EA02158A6923F44063164325F022
:1008F000400543EA86034360846149688163056279
:1009000070BD70B5056A026A22F48072026225F435
:1009100000754368C4690A688E6824F07304144340
:100920001C4A904245EA06250DD1CA684E6925F455
:10093000006545EA02258A6923F44053164325F4ED
:10094000806543EA06134360C4614968C163056278
:1009500070BD70B5046A026A0E4E22F480520262C3
:1009600024F400544268C3690D6823F4E64343EA63
:1009700005238D68B04244EA053404D14D6922F460
:10098000804242EA85124260C361496801640462A0
:1009900070BD0000002C0140000800400004004031
:1009A000302C0140614881B0016841F001010160D3
:1009B000026802F0010200920099426842F08052FF
:1009C0004260406800F080500090009801B070478D
:1009D00081B000685649884209D15648026842F001
:1009E00002020260006800F002000090009801B06E
:1009F000704718B585B004461022002101A800F008
:100A0000A5F821684A48814212D14848016841F05E
:100A1000040101604021006800F0040000900222FF
:100A20000098454801910292049201A900F098F8BB
:100A300006B010BD30B585B00446102200216846CE
:100A400000F084F821683D4A3B4D384891424FF40C
:100A5000806414D1016841F480410160026802F4AD
:100A60008042049200F04DF84FF4007100F04FF80E
:100A70000021019102910094694628463DE0304AE8
:100A8000914213D1416841F400314160416801F461
:100A90000031049100F035F8042100F038F8082006
:100AA0000021009001910291284625E0254A9142BB
:100AB00025D1416841F480214160416801F48021E1
:100AC00004910499026842F008020260022203685D
:100AD00003F0080304930499009403210391019205
:100AE0006946194C204600F03BF84FF400600021A5
:100AF0000090019102912046694600F031F805B05E
:100B000030BD0499026842F0040202607047006838
:100B100000F0040004900222049800910192032145
:100B200003912846694600F01BB8000018100240E7
:100B3000000400401C100240000801400038014041
:100B40000044004000480040000C014010B504463D
:100B500010460A460146204600F0E0F8204610BD47
:100B60002DE9F8474FF0000E00245F4A5F4BDFF895
:100B700080814FF00F0982460CE017683840106002
:100B800006E055604D68ED03F7D510680743176020
:100B90000EF1010E0F6837FA0EF000F09F80012071
:100BA00000FA0EF63740B742F2D1486838B3012850
:100BB0001AD002281DD003282ED0112816D01228B2
:100BC0001AD04C4DA8421CBF4B4DA84217D04B4DDC
:100BD000A8421CBF4A4DA84211D04A4DA8421CBF92
:100BE000494DA8420BD018E0CC6816E0CC68241D13
:100BF00013E0CC68083410E0CC680C340DE0886851
:100C000008B9042409E0012819BF0824CAF81460AF
:100C10000824CAF8106000E00024B7F5807F03D2F2
:100C200050464FEA8E0C05E0AEF108050AF10400CB
:100C30004FEA850C056809FA0CF6B54304FA0CF680
:100C4000354305604868C000A2D5D8F8000040F0E0
:100C50000100C8F80000D8F8005005F00105009523
:100C60004FEA8E0500984FEA9E0053F8206005F089
:100C70000C0C09FA0CF526EA0505244EB24508BF0E
:100C800000260ED0224EB24508BF012609D0214EC3
:100C9000B24508BF022604D01F4EB2450CBF032642
:100CA000042606FA0CF6354343F82050F8434D6805
:100CB000ED0295684CBF3D43054095604D68AD021F
:100CC000D5684CBF3D430540D5604D685668AD03BF
:100CD0004CBF47EA060500EA060552E7BDE8F18782
:100CE00002B9090401617047000401400800014095
:100CF0001810024000001110000012100000211016
:100D000000002210000031100000321000080140E5
:100D1000000C0140001001400014014062F30F225A
:100D200062F31F42401810F0030308D0C91A1FD302
:100D3000DB0748BF00F8012D28BF20F8022D130063
:100D400030B414461546103928BF20E93C00FAD8C3
:100D5000490728BF20E90C0048BF40F8042D89004E
:100D600028BF20F8022D48BF00F8012D30BC704785
:100D7000C91818BF00F8012DCB0728BF00F8012DB6
:100D8000704730B40EE00268436802440830DC0764
:100D900044BFA9F10104E31852F8045B43F8045B73
:100DA000091FF9D150F8041B0029ECD130BC704761
:100DB00078B589B000F00AF900F0DAF8102200F0F6
:100DC000FEF86248624D0168624E41F00401016024
:100DD00048F27034026802F0040204920499026836
:100DE00042F0080202600022006800F0080004904F
:100DF000214604982846FFF773FF00224FF4104164
:100E00003046FFF76DFF1320002100900191029101
:100E100030466946FFF7A4FE01204F49009001913A
:100E20000022029269462846FFF79AFE0A20002116
:100E300000900191029128466946FFF791FE01203A
:100E400002210190002203910292009469462846F3
:100E5000FFF786FE4FF4104100910122019200211C
:100E600002910222039269463046FFF779FE08227A
:100E700000F0A5F81C22002102A8FFF767FE374CFE
:100E8000374804F190050021A864E9640020286532
:100E90004FF6FF71A8652866696504F1D8063046EB
:100EA000FFF72FFC08B100F08EF8002100910191AE
:100EB0003046694600F09CF808B100F084F86021E3
:100EC0000291002203920492069202A93046FFF793
:100ED0002EFC08B100F077F83046FFF78AFD214874
:100EE000206000210C2060614FF4E136A160E160D8
:100EF0002161A161E1616660204600F0ABF808B1B4
:100F000000F061F81848A06400210C20E06521651C
:100F10006165A16521666166E66404F1480000F040
:100F200099F808B100F04FF81048286000210C2013
:100F30006861A960E9602961A961E9616E6028467C
:100F400000F088F808B100F03EF8FEE71810024003
:100F5000000C0140000801400000111010000020AA
:100F600000040040003801400044004000480040B8
:100F700000B58FB02822002105A8FFF7E7FD142255
:100F800000F01DF802210122059109921021002292
:100F90000A910C9205A8FFF7A9F808B172B6FEE70E
:100FA0000F20009000210191029103910491684665
:100FB000FFF726FA08B172B6FEE70FB000BD0021B8
:100FC0006846FFF7C3BD72B6FEE7000080B507486C
:100FD000016841F0100101600320FFF736FB0F208C
:100FE000FFF706FBFFF7DEFC002002BD00200240F9
:100FF00070B500F13C031A78012A01D1022070BDBE
:1010000001221A7002245C7005686E68AC680A6878
:1010100026F0700616436E6002680B48824218BFC5
:10102000B2F1804F05D0094882421CBF084DAA4248
:1010300004D1486824F0800404439460012159706D
:101040000020187070BD0000002C0140000400401A
:101050000008004038B5040001D1012032BD00F085
:1010600019F808B900F01AF800F01DF800F025F89A
:10107000FFE7416100F001F832BD2068C16841F42A
:101080000051C1600020686020216970A9700021B2
:101090006163704704F1400568787047002129704A
:1010A0002046FFF7C7BC242068702068C16821F47F
:1010B0000051C160204600F00AB82068016921F49F
:1010C000904101612068416921F02A01704710B503
:1010D000044622681169E06821F44051014311611E
:1010E000D3681849A0680B402169034360690B432A
:1010F0000343D3605169A06921F4407101435161F8
:1011000011498A4202D1FFF724FA01E0FFF719FAE8
:101110006268192148439200B0FBF2F16423B1FBED
:10112000F3F203FB121109013231B1FBF3F000F0CD
:10113000F00101EB0211226800F00F0040189060EE
:1011400010BD0000F3E9FFFF0038014010B507496A
:1011500079441831064C7C44163404E00A68081DB2
:10116000114488470146A142F8D110BD0800000093
:101170002800000037F4FFFF2001000010000020CD
:1011800000000000FFFBFFFF100000009C000000BB
:10119000000000200000000000F00DF8002801D041
:1011A000FFF7D4FFAFF300800020AFF30080FFF71C
:1011B000FFFD00F002F80120704700F001B80000C8
:1011C0000746384600F002F8FBE7000080B5AFF3B1
:1011D0000080024A11001820ABBEFBE72600020087
:1011E000FEE7FEE7FEE7FEE7FEE770477047704761
:1011F00000F000B802494A68087882184A607047CF
:101200000000002070470000000000000000000007
:101210000102030406070809014880470148004706
:10122000051200083912000801000000000000004B
:101230001000000000127A00AFF30080AFF30080CE
:10124000FFF7AAFF0000000001020304FFF7FEBF42
:10125000FFF7FEBFFFF7FEBFFFF7FEBFFFF7FEBFC2
:10126000FFF7FEBFFFF7FEBFFFF7FEBFFFF7FEBFB2
:10127000FFF7FEBFFFF7FEBFFFF7FEBFFFF7FEBFA2
:10128000FFF7FEBFFFF7FEBFFFF7FEBFFFF7FEBF92
:10129000FFF7FEBFFFF7FEBFFFF7FEBFFFF7FEBF82
:1012A000FFF7FEBFFFF7FEBFFFF7FEBFFFF7FEBF72
:1012B000FFF7FEBFFFF7FEBFFFF7FEBFFFF7FEBF62
:1012C000FFF7FEBFFFF7FEBFFFF7FEBFFFF7FEBF52
:1012D000FFF7FEBFFFF7FEBFFFF7FEBFFFF7FEBF42
:1012E000FFF7FEBFFFF7FEBFFFF7FEBFFFF7FEBF32
:0812F000FFF7FEBFFFF7FEBF90
:0400000508001239A4
:00000001FF
