:020000040800F2
:1000000070080020890100083118000861170008F5
:100010002D18000845020008D9180008000000004B
:100020000000000000000000000000003918000877
:100030004902000800000000351800083D180008BB
:10004000A3010008A3010008A3010008A301000800
:10005000A3010008A3010008A3010008A3010008F0
:10006000A3010008A3010008A3010008A3010008E0
:10007000A3010008A3010008A3010008A3010008D0
:10008000A3010008A3010008A3010008A3010008C0
:10009000A3010008A3010008A3010008A3010008B0
:1000A00091180008B5180008A91800089D18000844
:1000B000C1180008A3010008CD180008A30100081A
:1000C000A3010008A3010008A3010008A301000880
:1000D000A3010008A3010008A3010008A301000870
:1000E000A3010008A3010008A301000800F002F822
:1000F00000F03AF80AA090E8000C82448344AAF188
:100100000107DA4501D100F02FF8AFF2090EBAE885
:100110000F0013F0010F18BFFB1A43F0010318473B
:10012000DC1A0000FC1A0000103A24BF78C878C11D
:10013000FAD8520724BF30C830C144BF04680C60ED
:10014000704700000023002400250026103A28BF35
:1001500078C1FBD8520728BF30C148BF0B60704739
:100160001FB51FBD10B510BD00F031F81146FFF7E7
:10017000F7FF01F0B3FB00F04FF803B4FFF7F2FF15
:1001800003BC00F057F800000948804709480047C1
:10019000FEE7FEE7FEE7FEE7FEE7FEE7FEE7FEE737
:1001A000FEE7FEE704480549054A064B7047000094
:1001B0008D180008ED000008700200207008002073
:1001C0007004002070040020704770477047754627
:1001D00000F02CF8AE4605006946534620F00700B3
:1001E000854618B020B5FFF7DDFFBDE820404FF091
:1001F00000064FF000074FF000084FF0000BAC4630
:10020000ACE8C009ACE8C009ACE8C009ACE8C0097A
:1002100021F007018D46704710B50446AFF300800A
:100220002046BDE81040FFF7A8BF00000048704717
:100230001000002001491820ABBEFEE72600020096
:1002400070470000FEE70000704700002DE9F04F06
:1002500082B00E68002E00F0038141F20042C4F229
:100260000102042340F2004E904208BF03234FF6E0
:10027000FF7CC4F2010E009300240123C1F2100C94
:100280004FF0000A4FF0000949E000BF012704F0D9
:100290000C030F229A402BEA020207FA03F34FEAFB
:1002A0009A051A4346F82520D1F804B040F20C45CF
:1002B0005FEACB22DEF8082054BF22EA080242EAB5
:1002C0000802C4F20105CEF808202A685FEA8B23F1
:1002D00054BF22EA080242EA08022A605FEA8B332E
:1002E000DEF8042054BF22EA080242EA08025FEA6C
:1002F000CB33CEF80420DEF800204FF0010354BFCA
:1003000022EA080242EA0802CEF800200E680AF14A
:10031000010A36FA0AF204F1040400F0A18003FA9B
:100320000AF816EA080FF1D04E68664512DC122E64
:1003300056D8DFE806F0350B454955555555555506
:10034000555555555555554D510000BFD1F80C9098
:1003500046E000BF4FF6FF72C1F2210296420FDC69
:100360000022C1F2110296421AD00022C1F21202FA
:10037000964215D00022C1F22102964210D02FE001
:100380000022C1F2220296420AD00022C1F23102BA
:10039000964205D00022C1F23202964220D100BF1F
:1003A0008A684AB1012A14BFC0F81480C0F81080CE
:1003B0004FF0080914E000BF4FF0040910E000BF3F
:1003C000CA6802F108090BE04FF0000908E000BF1D
:1003D000CA6802F1040903E0CA6802F10C0900BF0F
:1003E00022460646BAF1080F24BF203A0436376881
:1003F0000F25954027EA050509FA02F22A433260E3
:10040000CA79D2067FF582AF41F21803C4F2020323
:100410001A68AEF57E7642F001021A601A6802F0A0
:1004200001020192019A2AF0030256F802B040F646
:100430000002C4F20102904210D040F60042C4F221
:10044000010290423FF422AF41F20002C4F20102E5
:10045000009F904208BF022719E700BF002716E758
:1004600002B0BDE8F08F0000002A08BF0904016156
:100470007047000040F26820C2F200000068704738
:1004800040F2000040F26821C2F20000C2F2000116
:1004900000780A68104408607047000080B542F296
:1004A0000000C4F20200016841F010010160032065
:1004B00000F086F80F2000F005F800F027F8002083
:1004C00080BD000070B540F20006C2F2000640F2A6
:1004D00008013278C2F200014FF47A730968B3FB65
:1004E000F2F20446B1FBF2F1084600F05BFB0F2C80
:1004F0004FF0010508D838B94FF0FF3021460022EF
:10050000002500F031F87460284670BD82B041F2D9
:100510001800C4F20200016841F0010101600168A5
:1005200001F0010101910199416841F08051416060
:10053000406800F080500090009802B070470000C2
:10054000002848BF7047C1B200F01F00012202FA24
:1005500000F04EF20012CEF2000242EAD10121F088
:10056000030108607047000010B54EF60C5CCEF237
:10057000000CDCF80030C3F3022E8EF00704042CCC
:1005800028BF0424BEF103034FF0FF3E0EFA04F42B
:1005900038BF0023A14399400EFA03F39A43114355
:1005A00000F00F0200F160430901043A03F56443CF
:1005B0006244002848BF02F10C03197010BD00000E
:1005C0004EF60C51CEF200010A684FF6FF031A40B6
:1005D00060F30A2242F0806040F0FD7008607047CE
:1005E0002DE9F04381B0002800F0858042F2000838
:1005F000C4F202080446D8F800000D4600F00700D7
:1006000088420CD2D8F8000020F007002843C8F830
:100610000000D8F8000000F00700A8426BD1206865
:1006200041F204098107C4F2020917D5410705D533
:10063000D9F8001041F4E061C9F80010010705D5B0
:10064000D9F8001041F46051C9F80010D9F8001031
:10065000A26821F0F0011143C9F80010C00741D190
:10066000D8F8000000F00700A8420CD9D8F8000024
:1006700020F007002843C8F80000D8F8000000F078
:100680000700A84237D12068410707D5D9F80010E4
:10069000E26821F4E0611143C9F80010000708D5B1
:1006A000D9F80000216920F4605040EAC100C9F87F
:1006B0000000D9F8002002F00C00082841F20020C8
:1006C000C0F27A0050D141F6EC33C2F38341C0F658
:1006D0000003595CD2033BD440F60010C0F23D0049
:1006E000484341E0606802280AD001282AD159F81D
:1006F000041C890308D4012001B0BDE8F08300BFC9
:1007000059F8041C8901F6D5D9F8001021F003012D
:100710000843C9F80000FFF7ADFE064641F28837EE
:10072000D9F80000616800F00C00B0EB810F97D0A1
:10073000FFF7A0FE801BB842F2D9032001B0BDE84C
:10074000F08300BF59F8041C8907D4D5DCE700BF4B
:10075000D9F8002041F6EA33C2F34042C0F6000364
:100760009A5C4843B0FBF2F0D9F8001041F6D2325F
:10077000C1F30311C0F60002515C40F2080220FAF6
:1007800001F140F20400C2F200000068C2F200026F
:100790001160FFF797FE002001B0BDE8F083000074
:1007A00040F2080041F20401C2F20000C4F202016A
:1007B0000068096841F6E232C1F30221C0F6000286
:1007C000515CC8407047000040F2080041F204014B
:1007D000C2F20000C4F202010068096841F6E23288
:1007E000C1F3C221C0F60002515CC840704700004E
:1007F0002DE9F04182B0002868D00446007841F22B
:100800000006C007C4F2020625D0706800F00C0094
:1008100004281BD0706800F00C00082802D1706812
:10082000C00313D46068002800F06881B0F5A02FE1
:1008300000F07C81B0F5803F00F07C81306820F4CE
:1008400080303060306820F4802076E130688003AA
:1008500001D56068D0B32078800718D5706810F093
:100860000C0F07D0706800F00C0008286ED170687B
:10087000C0036BD43068800702D52069012825D1D8
:100880003068616920F0F80040EAC10030602078EB
:1008900000071FD42078400732D4E56995B170680D
:1008A00000F00C00082840F08F80012D0ED07068F9
:1008B000216A00F480328A4208D1616A00F4701023
:1008C000884203D1002002B0BDE8F081012002B0CF
:1008D000BDE8F081A069002862D00020C4F2422067
:1008E0000121C0F88014FFF7C5FD0546706A800736
:1008F00000F18C80FFF7BEFD401B0228F6D92AE1EB
:10090000F06910F0805808D1F06940F08050F06133
:10091000F06900F080500090009847F20007C4F2A0
:1009200000073868C00529D4386840F48070386002
:10093000FFF7A0FD054600BF3868C0051ED4FFF7CD
:1009400099FD401B6428F7D905E100BF2069002804
:1009500040F20000C4F2422000F0828001210160D8
:10096000FFF788FD054600BF306880073FF588AF78
:10097000FFF780FD401B0228F6D9ECE0E068002874
:1009800000F08080052800F09780012800F0988012
:10099000306A20F001003062306A20F0040092E0FA
:1009A0000020C4F242200021C0F88014FFF762FD4D
:1009B000054600BF706A80077FF56CAFFFF75AFDF0
:1009C000401B0228F6D9C6E00027C4F242270020C7
:1009D0003866FFF74FFD022D05460BD130688001C8
:1009E00040F1BE80FFF746FD401B02284FF0030098
:1009F000F4D968E7306880017FF564AFFFF73AFD0E
:100A0000401B02284FF00300F4D95CE740F20800D5
:100A1000C2F20000006844F6D351C1F26201A0FBAB
:100A20000101480A019000BF00BF0198411E002843
:100A300001913FF42FAF00BF0198411E00280191A2
:100A40003FF428AF00BF0198411E002801913FF4F8
:100A500021AF00BF0198411E00280191E4D119E7A0
:100A600000210160FFF706FD054600BF30688007E2
:100A70007FF50DAFFFF7FEFC401B02284FF003008F
:100A8000F4D920E7306A20F001003062306A20F0AB
:100A900004003062FFF7EEFC054641F2883700BFE4
:100AA000306A800720D5FFF7E5FC401BB8424FF0C5
:100AB0000300F5D907E700BF306A40F00400306258
:100AC000306A40F001003062FFF7D4FC054641F285
:100AD000883700BF306A800706D4FFF7CBFC401B85
:100AE000B842F7D937E000BFB8F1000F7FF4D5AEB8
:100AF000F06920F08050F061CFE600BF306820F44C
:100B000080303060306820F480203060FFF7B2FC25
:100B1000054600BF306880037FF59DAEFFF7AAFC55
:100B2000401B64284FF00300F4D9CCE6306840F451
:100B300080203060306840F480303060FFF79AFCED
:100B4000054600BF306880033FF585AEFFF792FC95
:100B5000401B6428F6D9032002B0BDE8F08100BF35
:100B6000206AB0F5803F05D17168A26821F4003198
:100B7000114371607168626A21F474111143084372
:100B8000706001203866FFF775FC0446306880010C
:100B90003FF598AEFFF76EFC001B02284FF00300F4
:100BA000F4D990E6411E0020B0EB116F1CBF01206C
:100BB00070474EF21002CEF2000251604EF6235101
:100BC000CEF20001F0230B70072190601160704796
:100BD000704700007047000010B590F83C20012AD3
:100BE0004FF0020233D080F83D200268D2F804E0D2
:100BF000D2F808C00C682EF07003234340F2FF7453
:100C0000C4F20004A24253600ADCB2F1804F13D058
:100C100040F20043C4F200039A420DD011E000BF3D
:100C200042F60043C4F201039A4205D040F60003A5
:100C3000C4F200039A4204D149682CF0800319439E
:100C400091600121002280F83D1080F83C20104680
:100C500010BD0000002804BF0120704710B50446F5
:100C600090F83D0028B9002084F83C00204600F0B0
:100C70006FF8022084F83D00206840F2FF7302689C
:100C8000C4F2000342F6004C9842C4F2010C15DC99
:100C9000B0F1804F1AD040F20041C4F20001884206
:100CA00014D0984218DCB0F1804F1DD040F20041C2
:100CB000C4F20001884217D01AE000BF604505D099
:100CC00040F60001C4F200018842EAD1A16822F096
:100CD00070020A439842E6DD604505D040F6000107
:100CE000C4F20001884203D1216922F440720A4310
:100CF000A36922F08001D4F804E0E268194360455A
:100D00000160C262C0F828E002D16169CCF83010FD
:100D1000012141610269D20703D0026922F0010278
:100D20000261002084F8461084F83E1084F83F10D9
:100D300084F8401084F8411084F8421084F843107D
:100D400084F8441084F8451084F83D1010BD00006C
:100D500080B582B0006840F2FF71C4F200018842A1
:100D600016DCB0F1804F55D040F20041C4F20001D2
:100D700088424DD141F21C00C4F20200016841F0EA
:100D800002010160006800F00200019001983FE05C
:100D900040F60001C4F20001884253D042F60041FF
:100DA000C4F20101884233D141F21C00C4F20200B6
:100DB00050F8041C002241F4006140F8041C50F873
:100DC000040C002100F40060019001981820FFF746
:100DD000CBFB1820FFF7B4FB192000210022FFF7FE
:100DE000C3FB1920FFF7ACFB1A2000210022FFF7FC
:100DF000BBFB1A20FFF7A4FB1B2000210022FFF7FA
:100E0000B3FB1B2002B0BDE88040FFF799BB00BFD9
:100E100002B080BD41F21C00C4F202000168002251
:100E200041F0010101600068002100F00100019023
:100E300001981C20FFF798FB1C2002B0BDE8804001
:100E4000FFF77EBB41F21C00C4F2020001680022E1
:100E500041F0040101600068002100F004000190ED
:100E600001981E20FFF780FB1E2002B0BDE88040E5
:100E7000FFF766BB90F83D1001291CBF01207047A9
:100E8000022180F83D10006840F2FF72C168C4F290
:100E90000002904241F00101C16009DCB0F1804FD5
:100EA00012D040F20041C4F2000188420CD012E09E
:100EB00042F60041C4F20101884205D040F600012B
:100EC000C4F20001884206D1816801F007010629B9
:100ED00004BF00207047016841F00101016000205B
:100EE0007047000080B590F83C20012A4FF00202C4
:100EF00000F0C28080F83D20D0F800C04FF6777235
:100F0000DCF8083023EA0202CCF808200B684F2BEB
:100F100028DC1F2B44DD202B45D0302B43D0402B29
:100F200040F0AC80D1F804E0C968DCF82030DCF88F
:100F3000202022F00102CCF82020DCF8182022F03A
:100F4000F00242EA011123F00A0242EA0E02CCF852
:100F50001810CCF82020DCF8081041F0470121F0EF
:100F6000300180E06F2B27DDB3F5005F48D0B3F58B
:100F7000805F7AD0702B40F08180D1E901E3C968AD
:100F8000DCF8082043EA0E0322F47F4243EA012101
:100F90001143CCF80810DCF8081041F0770162E04A
:100FA0000BB1102B6AD1DCF8081021F07001194345
:100FB00041F0070157E000BF502B35D0602B5DD1C9
:100FC000D1F804E0C968DCF82030DCF8202022F0F9
:100FD0001002CCF82020DCF8182022F4704242EAFB
:100FE000013123F0A00242EA0E12CCF81810CCF81E
:100FF0002020DCF8081041F0670121F0100132E0F8
:10100000D1E901E3C968DCF8082043EA0E0322F4C1
:101010007F4243EA01211143CCF80810DCF80810A4
:1010200041F480411FE000BFD1F804E0C968DCF85A
:101030002030DCF8202022F00102CCF82020DCF85F
:10104000182022F0F00242EA011123F00A0242EADB
:101050000E02CCF81810CCF82020DCF8081041F073
:10106000570121F02001CCF808100022012180F85E
:101070003D10002180F83C10104680BD0122F5E7AC
:101080007047000070B504460068C5680669B1077E
:1010900016D515F0020113D06FF002010161012194
:1010A00021778069800703D02046FFF7E9FF05E03C
:1010B000204600F0B7F8204600F03CFA00202077E8
:1010C000700719D515F0040016D020686FF00401E0
:1010D000016102212177806910F4407F04D020460D
:1010E000FFF7CEFF06E000BF204600F09BF8204649
:1010F00000F020FA00202077300717D515F00800FF
:1011000014D020686FF00801016104212177C069C3
:10111000800703D02046FFF7B3FF05E0204600F02C
:1011200081F8204600F006FA00202077F00619D555
:1011300015F0100016D020686FF010010161082131
:101140002177C06910F4407F04D02046FFF798FF54
:1011500006E000BF204600F065F8204600F0EAF9FE
:1011600000202077F00718BF15F0010002D13006EB
:1011700009D412E020686FF001010161204600F0FF
:10118000DBF9300609D515F0800006D020686FF035
:10119000800101612046FFF71BFD700609D515F09F
:1011A000400006D020686FF040010161204600F049
:1011B000C5F9B00658BF70BD15F0200008D02168F1
:1011C0006FF0200220460A61BDE87040FFF702BDC3
:1011D00070BD000080B586B040F200410068C4F2E6
:1011E000000100228842049202D006B080BD00BFF8
:1011F00041F21800C4F20200026842F004020260E8
:10120000006800F004000190019840200290022044
:101210000390059001F5823002A9FFF717F806B098
:1012200080BD0000704700002DE9F04390F83C308D
:10123000012B04BF0220BDE8F0834FEAB202032A6B
:101240003CD8DFE802F0034381BD00BF036842F6EB
:1012500000461D6A1A6AC4F2010622F001021A62EF
:101260001A465C6852F818CFB3428E68D1F800E095
:1012700025F0020545EA06050CD1CE68D1E90578CE
:1012800024F4407425F00C0526F004063C43354355
:1012900044EA08042CF0730747EA0E075C609F617C
:1012A0004F6809695F631D629F6947F008079F6186
:1012B0009F6927F004079F61B2E000BF012100226F
:1012C00080F83C200846BDE8F08300BF036842F682
:1012D00000461D6A1A6AC4F2010622F010021A6260
:1012E0001A46D3F804C052F8184FB3428E68D1F8AA
:1012F00000E025F0200545EA061510D1CE68D1E9B9
:10130000058725F0C0096FF0400505EA06152CF4A5
:10131000406647EA080745EA090546EA870C24F4CF
:10132000E64444EA0E27C3F804C09F614F68096988
:101330009F631D629F6947F400679F619F6927F45F
:1013400080679F616BE000BF036842F600461D6A3C
:101350001A6AC4F2010622F480721A621A46D3F89D
:1013600004C052F81CEFB3428E680C6825F4007577
:1013700045EA062511D1CE68D1E9058725F44069F3
:10138000360240F2FF4526EA05052CF4405647EAAE
:10139000080745EA090546EA071C2EF073072743AC
:1013A000C3F804C0DF614F680969DF631D62DF694C
:1013B00047F00807DF61DF6927F00407DF612FE0EE
:1013C000036842F60047D3F820C01A6AC4F2010746
:1013D00022F480521A621A465C6852F81C5FD1F8F7
:1013E00000E08E68BB4204D14F6924F4804444EA93
:1013F00087142CF4005747EA063725F4E64646EAF8
:101400000E265C60DE614E6809691E641F62DF693A
:1014100047F40067DF61DF6927F48067DF61090255
:101420001368194311600021002280F83C2008460F
:10143000BDE8F083002804BF0120704710B50446C2
:1014400090F83D0028B9002084F83C00204600F0C8
:101450006FF8022084F83D00206840F2FF730268B4
:10146000C4F2000342F6004C9842C4F2010C15DCB1
:10147000B0F1804F1AD040F20041C4F2000188421E
:1014800014D0984218DCB0F1804F1DD040F20041DA
:10149000C4F20001884217D01AE000BF604505D0B1
:1014A00040F60001C4F200018842EAD1A16822F0AE
:1014B00070020A439842E6DD604505D040F600011F
:1014C000C4F20001884203D1216922F440720A4328
:1014D000A36922F08001D4F804E0E2681943604572
:1014E0000160C262C0F828E002D16169CCF8301016
:1014F000012141610269D20703D0026922F0010291
:101500000261002084F8461084F83E1084F83F10F1
:1015100084F8401084F8411084F8421084F8431095
:1015200084F8441084F8451084F83D1010BD000084
:1015300070470000704700007047000070470000CF
:10154000002804BF0120704710B5044690F8410000
:1015500028B9002084F84000204600F063F82420D9
:1015600084F841002068D4E90212C36823F40053D0
:10157000C360036923F440531A430261D4E904238E
:101580001143C268194341F20C639A431143C1608D
:101590004169A26921F44071114343F60002C4F28B
:1015A00001029042416103D0FFF7FAF802E000BF68
:1015B000FFF70AF96268192148439100B0FBF1F086
:1015C00048F21F51C5F2EB11A0FB01235A094FF657
:1015D0009C73C0F6FF7302FB0300322303EB001081
:1015E000A0FB0101F02303EA5113206803EB021270
:1015F000C1F3431111448160016921F490410161FB
:10160000416921F02A014161C16841F40051C16082
:1016100000202021606484F8411084F84210606347
:1016200010BD000010B586B0006844F20041C4F25D
:10163000000188424FF00001CDE90411CDE902110B
:1016400034D044F60001C4F20001884254D043F67D
:101650000001C4F20101884240F07F8041F218008D
:10166000C4F20200016840F6000441F480410160C8
:101670000168C4F2010401F48041019101990168FB
:1016800041F004010160006802A900F0040001902B
:1016900001984FF4007002900220039003200590FF
:1016A0002046FEF7D3FD4FF480604EE041F2180073
:1016B000C4F20200416840F6000441F40031416088
:1016C0004168C4F2010401F40031019101990168FB
:1016D00041F004010160006802A900F004000190DB
:1016E00001980420029002200390032005902046D8
:1016F000FEF7ACFD082028E041F21800C4F2020019
:10170000416841F480214160416801F480210191E8
:101710000199016841F008010160006802A900F028
:101720000800019001984FF480600290022003901D
:101730000320059040F60000C4F2010000F580642B
:101740002046FEF783FD4FF4006002900020CDE9B3
:10175000030002A92046FEF779FD06B010BD000087
:10176000FEE700002DE9F04F85B0002741F2180098
:101770000497C4F20200016840F6004B41F00401F6
:1017800001600168C4F2010B01F0040100910099AD
:101790000168002241F008010160006848F27031E0
:1017A00000F0080000900098584648F27039FEF7A3
:1017B0005BFEABF5806420464FF4104100224FF4ED
:1017C0001048FEF751FE132001AECDE90107204677
:1017D00031460397FEF73AFD0020C1F211004FF0A9
:1017E000010ACDE9020758463146CDF804A0FEF7BC
:1017F0002DFD0A20CDE90107584631460397FEF733
:1018000025FD022558463146CDE9019A03970495F6
:10181000FEF71CFD20463146CDE9018ACDE903756E
:10182000FEF714FD05B0BDE8F08F0000FEE70000F4
:10183000FEE700007047000070470000FEF720BE82
:10184000B0B590B000240120CDE90B44CDE90944A6
:101850000A9010200B904FF4601002250F9006A8FC
:10186000CDE907440695CDE90D54FEF7C1FF0F20E1
:10187000CDE901054FF48060CDE9040401A80221FF
:101880000394FEF7ADFE10B0B0BD0000704700003D
:1018900040F27000C2F20000FFF7F4BB40F27000AB
:1018A000C2F20000FFF7EEBB40F27000C2F200008F
:1018B000FFF7E8BB40F27000C2F20000FFF7E2BBA6
:1018C00040F2B800C2F20000FFF7DCBB40F2481063
:1018D000C2F20000FFF7D6BBFEE700008EB040F278
:1018E0000044C4F20004FEF7D9FDFFF7A9FFFFF79B
:1018F00039FF40F200100021C2F2000063230D9175
:10190000CDE90B11CDE90811CDE90611CDE904119E
:101910004022C0E9021301618021C0E900428161D7
:10192000FFF798F920B1EFF3108072B6FEE700BF21
:101930004FF480500A9040F20010C2F200000AA951
:10194000FFF7D0FA20B1EFF3108072B6FEE700BFC8
:1019500040F20010C2F20000FFF76CFD20B1EFF37F
:10196000108072B6FEE700BF40F20010C2F2000025
:1019700008A9FFF731F928B1EFF3108072B600BF64
:10198000FEE700BF6020019040F200100025C2F287
:10199000000001A90022CDE902550595FFF744FC9E
:1019A00020B1EFF3108072B6FEE700BF40F20010E6
:1019B000C2F20000FFF70EFC40F2901004F59A31DD
:1019C000C2F200004FF4E1370C26C0E90017C0E96D
:1019D0000255C0E90456C0E90655FFF7B1FD28B12C
:1019E000EFF3108072B600BFFEE700BF40F2D810E0
:1019F00004F58041C2F200000025C0E90017C0E9EB
:101A00000255C0E90456C0E90655FFF799FD28B113
:101A1000EFF3108072B600BFFEE700BF40F2202057
:101A200004F58841C2F200000C234FF4E13280E853
:101A30002600C0E90355C0E90535C561FFF780FD03
:101A400020B1EFF3108072B6FEE700BF40F27000E5
:101A5000002104F59432C2F20000402340F2E7373F
:101A600080260491CDE90211CDE90A11C0E90023D5
:101A7000C0E90217C0E904118661FFF7EBF828B14D
:101A8000EFF3108072B600BFFEE700BF4FF4805046
:101A9000019040F27000C2F2000001A9FFF722FAA3
:101AA00020B1EFF3108072B6FEE700BF40F2700085
:101AB000C2F200000AA9FFF78FF818B1EFF3108007
:101AC00072B6FEE740F2B8000021C2F2000040F218
:101AD000E7370491CDE90211CDE90A114FF08042B8
:101AE0004023C0E9021701618021C0E90023816120
:101AF000FFF7B0F820B1EFF3108072B6FEE700BF39
:101B00004FF48050019040F2B800C2F2000001A9E9
:101B1000FFF7E8F920B1EFF3108072B6FEE700BFDF
:101B200040F2B800C2F200000AA9FFF755F818B158
:101B3000EFF3108072B6FEE740F248100021C2F2C7
:101B4000000040F2E7370491CDE90211CDE90A1116
:101B500004F580624023C0E9021701618021C0E9D9
:101B600000238161FFF776F820B1EFF3108072B6A1
:101B7000FEE700BF4FF48050019040F24810C2F2DF
:101B8000000001A9FFF7AEF920B1EFF3108072B6A3
:101B9000FEE700BF40F24810C2F200000AA9FFF7BA
:101BA0001BF818B1EFF3108072B6FEE740F2700038
:101BB000C2F20000FFF75EF940F2B800C2F2000086
:101BC000FFF758F940F24810C2F20000FFF752F94F
:101BD000FEE7000000000000000001020304060709
:101BE00008090000000001020304010202030405C9
:101BF000060708090A0B0C0D0E0F1010201C000818
:101C0000000000201000000028010008301C00081F
:101C100010000020600800004401000800000000DF
:101C2000010000001000000000127A000000000017
:04000005080000ED02
:00000001FF
