:020000040800F2
:1000000040060020E1400008553F0008573F000827
:10001000593F00085B3F00085D3F000800000000FA
:100020000000000000000000000000005F3F00082A
:10003000613F000800000000633F0008653F0008C2
:1000400005410008094100080D4100081141000860
:1000500015410008194100081D4100082141000810
:1000600025410008294100082D41000831410008C0
:1000700035410008394100083D4100084141000870
:1000800045410008494100084D4100085141000820
:1000900055410008594100085D41000861410008D0
:1000A000693F00086D3F0008753F0008773F000872
:1000B000793F0008654100087F3F0008694100085A
:1000C0006D41000871410008754100087941000840
:1000D0007D410008853F00088B3F0008913F0008E4
:1000E0008141000885410008894100080129A8BF15
:1000F00001F086B8704770B50A24DFF85457DFF86E
:10010000146C002200F020F8012200F017F864209F
:1001100001F096F800F017F8002200F00FF86420C4
:1001200001F08EF8641EECD100F00DF82846BDE811
:10013000704001224FF4004101F05CB94FF40041DE
:10014000284601F057B901224FF48051304601F0A2
:1001500051B938B5DFF8C05B2A6800210446516206
:10016000284601F072F92968486AA042FBD3284664
:10017000BDE8324001F092B92DE9F84F16468846A5
:100180003568294601F05AFB1F4607D001F064FB91
:100190008146294601F0A0FB306001E04FF00009E4
:1001A0003C684046214601F049FB07D001F054FB72
:1001B0000646214601F090FB386000E000264FF033
:1001C0008047484600F0DBFA01F0F8FB0446884619
:1001D000224628F00043DFF8440BDFF8441BDFF829
:1001E00044ABDFF844BB01F00DFC01F0DDFC05463B
:1001F000304600F0C4FA01F0E1FB21F00041524624
:100200005B4601F0FFFB01F0CFFC074628F00048F9
:1002100052465B462046414601F0F4FBDFF80C2BCA
:10022000DFF80C3BDFF8284601F0ECFB01F0BCFCEA
:100230008246484600F0ADF81CD20122402100F071
:10024000A5FF00F0A5F804D800F0AAF800F0A4F883
:1002500080463046002101F0DBFC40D25046394652
:1002600001F0E8FC04D200F0A1F83846514624E041
:1002700001221EE001F0CCFC22D20022402100F03D
:1002800085FF3046002101F0C3FC04D800F08EF851
:1002900000F082F8804600F07BF820D250463946C4
:1002A00001F0C8FC04D200F07BF83846514604E067
:1002B000002200F069FF5046394601F0CDFA0DE00A
:1002C000304601F0B7FC38BF012203D301F0A0FC97
:1002D00005D2002200F058FF00F05EF8804640464C
:1002E000294601F0A7FC4FF4007609D32846414681
:1002F00001F0A0FC04D24746B0462946202603E080
:1003000041462F464FF02008384601F0A5FC8146B3
:10031000384601F01FFD00250746AA462FE050464B
:1003200001F02EFD494601F097FC8346284601F076
:1003300027FD0146584601F08FFA4FF07E5101F03B
:1003400067FC04D80122314600F020FF6D1C012219
:10035000414600F01BFF00F016F880B2FFF7F9FEEF
:100360000022414600F012FF0022314600F00EFF4D
:1003700000F009F880B2FFF7ECFE0AF1010A5745D8
:10038000CDDABDE8F18FDFF8B80AC06D01F0E2BC4C
:100390003046002101F04EBC3846514601F09CBA6F
:1003A00001224FF48071204601F024B800224FF45E
:1003B0008071204601F01EB870B50446002CDFF8AD
:1003C000540946BF6442002201224FF4004101F06B
:1003D00011F80025DFF8786410E001221021304682
:1003E00001F008F83220FFF7B4FE00221021304659
:1003F00001F000F83220FFF7ACFE6D1CAC42ECDAE5
:1004000070BD2DE9F04101224FF40041DFF80409ED
:10041000DFF8304ADFF83884DFF8247A00F0EAFFAA
:100420002546F87B01280DD0012200F068F8142041
:10043000FFF78FFE002200F062F81420FFF789FE1C
:100440006D1EEED100F06BF82546B87B012809D06F
:1004500000F059F800F051F800F05BF800F04DF8AA
:100460006D1EF2D1DFF8E069FE650020B866F8661F
:1004700007F16C0307F16802DFF8D019FFF77CFE83
:100480000122402100F03CF82546787B01280FD05E
:100490000122202100F034F8FA20FFF75AFE002252
:1004A000202100F02DF8FA20FFF753FE6D1EECD14D
:1004B00000F035F8B87B012809D000F024F800F0EE
:1004C0001CF800F026F800F018F8641EF2D10020A5
:1004D000B866F866FE6507F16C0307F16802DFF89D
:1004E0007019DFF87009FFF747FE0020B866F8665C
:1004F000DFF8F00BF865BDE8F081642029E61021F3
:10050000404600F077BF01224FF40071404600F0F2
:1005100071BF00224FF40071404600F06BBF002213
:100520004FF48071404600F065BF2DE9F84F054655
:100530000E4688B01746294601F034FC0446304682
:10054000314601F02FFC214601F0C6F90446384639
:1005500000F015F90146204601F07EF90899DFF810
:10056000889B8246084601F01DFC0146504601F07A
:1005700073F982464FF0804000F001F9089901F0CC
:1005800011FC0146504601F067FB01F017FA00220A
:100590004B4601F073FC00F000F901F005FB01F09F
:1005A0000DFA01F083FC01F0FFFA029080F00041A7
:1005B0000391304601F002FA80468946284601F050
:1005C000FDF906460F4600F0D4F8824602988B46A5
:1005D00001F0F4F901F0F6FECDE90601204601F044
:1005E000EDF9CDE9040101F0EFFE0022DFF8F83A61
:1005F000CDE9002300F0CCF8DDE9062301F002FA92
:1006000022462B4601F05AFFDDE9002301F036FCBB
:1006100000F0C3F802F076F802460B465046594601
:1006200002F012F982468B4600F0A3F8CDE90001F2
:10063000DFF8B46A039801F0C1F901F0C3FE00F0DD
:10064000A7F822462B4601F0DDF904460D46DDE908
:10065000040101F0B9FE02460B462046294601F08E
:100660002DFF0022334601F009FC0022DFF87C3A1E
:10067000DFF87C5ADFF87C4A02F058F902F042F8C1
:1006800006460F465046594601F08EFA01F096F99B
:1006900000F078F800F067F801F086FA81460298D9
:1006A00001F08CF900F06EF800F05DF801F07CFAD2
:1006B0008046DDE9000132463B4602F0C5F801F014
:1006C00073FA01F07BF900F05DF8DFF82C2ADFF80F
:1006D0002C3ADFF82C7A01F0F1FE01F065FA0646BB
:1006E000039801F06BF900F04DF8DFF80C2ADFF801
:1006F0000C3ADFF8105A01F0E1FE01F055FA02461B
:100700004846394601F084FADFF8FC390FD829460B
:1007100001F090FA0BD24046214601F079FA06D852
:10072000194601F087FA02D24E46424614E030469E
:10073000394601F06DFA0CD8294601F07BFA08D24F
:100740001046214601F064FA03D8194601F072FA06
:1007500002D36FF0004216461298139906600A60A1
:1007600009B0BDE8F08FDFF89029DFF8903901F08B
:10077000A5BE32463B464046494602F0EFB83946F0
:1007800001F010BB02460B460020294601F03AB9A1
:10079000044608980D4601F011B90022DFF84C39E3
:1007A00002F0C4B838B5DFF86C550221284600F0D5
:1007B0001BFE401E8041DFF88846C00F6073102189
:1007C000284600F011FE401E8041C00FA073012199
:1007D000284600F009FE401E8041C00FE073012151
:1007E000DFF8280900F000FE08B90220207331BDAF
:1007F000FEB5DFF84C46DFF81409217B002914BF51
:10080000002201224FF4004100F0F4FD207B01287A
:1008100017D104F16400019004F160010091666F4A
:10082000256F00F0B0FA074600F0A1FA33462A46D9
:100830003946FFF77AFE00F091FAA06FFFF7BCFD92
:1008400003E0022803D1FFF7DCFD00202073F7BD91
:10085000000C014070B5612840F2171440F23715C2
:1008600026D1312904D17020108040F259115CE169
:10087000322908BF6F2026D0332908BF712052D0FB
:10088000342903D171201080F7214EE1352903D19D
:1008900071201080D62148E1362901D1742085E0ED
:1008A000372901D1722029E038295AD16F202BE055
:1008B00062284FF4AB762AD1312908BF4C202DD0C5
:1008C000322908BF4F2000F0E680332908BF5120AD
:1008D00029D0342903D150201080F02125E1352979
:1008E00003D151201080D7211FE1362903D1522096
:1008F0001080B72119E1372903D1512010809521AB
:1009000013E138292DD15020108073210DE1632887
:100910004FF49C742BD1312908BF2C2000F0DE80CD
:10092000322908BF2F2000F0DE80332904D1312086
:1009300010804FF48C71F8E0342901D13020B1E0FF
:10094000352901D131202BE0362903D13020108008
:10095000B921EAE0372903D1312010809721E4E062
:10096000382940F0E980302010807621DDE06428CD
:100970004FF48D754FF4AC7625D1312908BF0C208A
:1009800051D0322908BF0E2051D0332908BF102082
:1009900052D0342901D1102084E0352903D10F2011
:1009A0001080DA21C1E0362903D10F201080B82150
:1009B000BBE0372901D1102087E038296DD1102004
:1009C00010807721B1E0652827D1312908BF6FF069
:1009D000160028D032296FF0110028D0332905D114
:1009E0006FF00F00108040F21B119EE0342902D1FD
:1009F0001080F9209FE035296FF0120401D1148096
:100A000058E0362900F08880372902D110809C20D8
:100A100091E0382941D114808CE0662827D1312912
:100A200008BF6FF0340059D032296FF033005AD02C
:100A3000332908BF6FF031002DD034296FF0320414
:100A400002D11480FA2076E0352902D11480DB200F
:100A500071E0362901D1148031E0372902D11080AC
:100A60009B2068E0382967D11480792063E06728EB
:100A70002ED1312905D16FF05600108040F2571168
:100A800053E032296FF0530003D1108040F2391047
:100A900051E0332902D110801D8070BD342904D16A
:100AA0006FF052001080FA213FE035296FF05400BA
:100AB00002D11080DA203EE0362902D11080BD201C
:100AC00039E0372933D16FF0550010809B212CE09D
:100AD000682831D131296FF0740002D110801E8056
:100AE00070BD322902D110801C8070BD332903D122
:100AF000108040F219101EE0342904D16FF0730009
:100B00001080F92111E035296FF0750002D11080B5
:100B1000DC2010E0362902D11080BB200BE0372901
:100B200005D16FF0760010809D21198070BD3829A5
:100B300002D110807820188070BD2DE9FE4FC04C86
:100B4000DFF8CC9560792A284EF660254DF2D86AF8
:100B50004BF2B03B4FF230282CD100F0EBF804F10F
:100B6000640104F160000191009000F00AF900F0C6
:100B7000FDF800F0E6F800F0F1F800F040F900F0C0
:100B80001FF900F037F900F002F92179E07800F060
:100B9000D3F800F0F0F800F0E9F800F0D2F800F037
:100BA000DDF800F00DF900F02AF94FF47A7000F04A
:100BB00047FB3BE0E1792A2940D1A17900F0BCF85C
:100BC00000F0D9F800F0D2F800F0BBF800F0C6F859
:100BD00000F015F9207900F0F4F800F00BF9207915
:100BE00000F0D6F800F0B2F800F009F900F0A2F831
:100BF00000F0C1F800F0BAF800F0A3F800F0AEF889
:100C000000F0DEF800F0F6F800F0C1F8A1796079A4
:100C100000F092F800F0AFF800F0A8F800F091F8BA
:100C200000F09CF800F0CCF800F0E9F800F0AFF824
:100C30000C212046FFF75AFA002255E0607A2A2854
:100C400065D100F077F800F096F800F08FF800F02A
:100C500078F800F083F800F0D2F800F0B1F800F076
:100C6000C9F800F094F82179E07800F065F800F018
:100C700082F800F07BF800F064F800F06FF800F004
:100C80009FF800F0BCF800F082F8217AE07900F0DB
:100C900053F800F070F800F069F800F052F800F036
:100CA0005DF800F0ACF8A07900F08BF800F0A2F845
:100CB000A07900F06DF8A17A607A00F03DF800F0BC
:100CC0005AF800F053F800F03CF800F047F8A0792B
:100CD00000F077F800F093F8A07900F059F80C21B3
:100CE0002046FFF703FA01224FF48051484600F0F6
:100CF00081FB00F02BF804F17C0104F1100003B03B
:100D0000BDE8F04F4FF47A73022201F0EABEBDE86D
:100D1000F78F000000080140F801002014AE47E101
:100D20007A143F40A69BC420B0E24940A01A2FDDB0
:100D30002406E13FA178607804F15A0304F15802D7
:100D400088E502993B463246FFF7EFBB04F16C039E
:100D500004F1680200210020FFF70EBA616E206ED8
:100D600004F16C0304F16802FFF706BA0290B4F9CB
:100D7000580001F005B804F1640004F1600101902D
:100D80000091676F266FB4F95A0000F0F9BF207820
:100D900062280ED06B280AD06E280CD0702804D0A0
:100DA000712804D0722806D007E0404606E0584675
:100DB00004E0504602E0284600E00020FFF7FCBABD
:100DC000207862280ED06B280AD06E280CD07028AC
:100DD00004D0712804D0722806D007E0404606E00F
:100DE000584604E0504602E0284600E00020404219
:100DF000FFF7E2BA01224021484600F0FBBA002288
:100E00004021484600F0F6BA0068C249884208BF4F
:100E1000FFF7C8BC70470068BF49884200D07047E0
:100E200080B507490C2201F1100001F0ACFEBDE8CD
:100E3000084000224FF48051B54800F0DBBA0000B2
:100E40000000002041420F0000005C42666628C39B
:100E5000000029C30000BC412DE9F04186B002F03A
:100E600045F900F096F9102200F0C4F9AB48A84CFF
:100E70000168A64D41F0040101604FF4004602688C
:100E800002F0040204920499026842F0080202602F
:100E90000022006800F00800049049F24001049824
:100EA00000F074F9002248F27031284600F0A2FAEE
:100EB000132000F056F900F04BF94FF4825100F086
:100EC0004AF90222039200F042F90B2000F049F99E
:100ED00000F03AF9012101910022022103910292CE
:100EE000009600F030F901210191002203210391C5
:100EF0000292009600F02BF94FF45C7100F02BF990
:100F00000322039200F01FF900F039F900F071F9A3
:100F1000834D4FF08040286063214FF6FF70002220
:100F2000E8606960AA602A61AA61284600F080FA38
:100F300008B100F063F94FF48054029402A92846E6
:100F400000F0A4FB08B100F059F9002100910191D3
:100F50002846694602F0DCF808B100F04FF900F0CD
:100F60000EF900F046F96F4D6A4805F190063F21F1
:100F7000306000228020B0617160B26042F20F7870
:100F800032617261C6F80C80304600F051FA08B147
:100F900000F034F9029402A9304600F077FB08B162
:100FA00000F02CF90021009101913046694602F0D1
:100FB000AFF808B100F022F900F0E1F800F019F9FB
:100FC00042F6F721F16440F2E7315748B0647165A9
:100FD00000203065B0658021316605F1D8073846BC
:100FE00000F026FA08B100F009F900F0A7F808B1FE
:100FF00000F004F900F0BCF808B100F0FFF800F0D0
:10100000BEF800F0F6F805F59077484838603F21C3
:1010100079600022BA60C7F80C803A618021B9611A
:10102000384600F005FA08B100F0E8F800F086F85C
:1010300008B100F0E3F800F09BF808B100F0DEF82A
:101040003B4C354820610C210020A061E06120620A
:10105000A062E0624FF4E1386162C4F8148004F1E8
:10106000100001F001FD08B100F0C8F83148286017
:1010700000210C206861A960E9602961A961E9612A
:10108000C5F80480284601F0EFFC08B100F0B6F87E
:101090002948A86400210C20E86529656965A965CF
:1010A00029666966C5F84C8005F1480001F0DCFC52
:1010B00008B100F0A3F8304600F0FBF9384600F024
:1010C000F8F90C22214604F1100001F05CFDFFF755
:1010D00012F8FFF78DFBFFF730FD322000F0B0F87B
:1010E000F7E7000000008C420000F0BF0000F03F76
:1010F0000080664000002AC3EA2E4454FB210940C8
:101100000000A0C10100484301002A43000C014037
:1011100000080140002C0140003801401810024036
:10112000F80100209000002000040040000800406A
:10113000000000200044004000480040029402A942
:10114000384600F0A3BA6946284600F08DB86946D3
:10115000204600F089B800910122019200210291FD
:101160007047002100900191012202926946704768
:101170000021009101913846694601F0C9BF102253
:10118000002102A801F0F6BF4FF48071204600F064
:1011900031B900B58FB02822002105A801F0EAFF7F
:1011A000142200F027F80221012205910992102152
:1011B00002220A910C9200214FF460120D910E92BE
:1011C00005A801F0E1FF08B172B6FEE70221019126
:1011D0000F204FF48061009000220391029204924C
:1011E0000221684602F05AF908B172B6FEE70FB064
:1011F00000BD08220021684601F0BCBF72B6FEE7C0
:10120000002202F025BA30B4002513E050F8042B78
:10121000D30744BFA9F101039A18091F042942F812
:10122000045BFAD213468C0744BF15809B1CC90788
:1012300048BF1D7050F8041B0029E7D130BC70472F
:1012400038B5044602F034FA14F1010F054602D015
:1012500004490878041902F02BFA401BA042FAD383
:1012600031BD00BF800000202DE9F8474FF0000E8F
:101270000024624A624BDFF88C814FF00F098246EE
:101280000CE017683840106006E055604D68ED03CB
:10129000F7D51068074317600EF1010E0F6837FA93
:1012A0000EF000F09F80012000FA0EF63740B742A2
:1012B000F2D1486838B301281AD002281DD003287B
:1012C0002ED0112816D012281AD04F4DA8421CBF7C
:1012D0004E4DA84217D04E4DA8421CBF4D4DA842BE
:1012E00011D04D4DA8421CBF4C4DA8420BD018E068
:1012F000CC6816E0CC68241D13E0CC68083410E0FC
:10130000CC680C340DE0886808B9042409E0012891
:1013100019BF0824CAF814600824CAF8106000E055
:101320000024B7F5807F03D250464FEA8E0C05E0CB
:10133000AEF108050AF104004FEA850C056809FAC8
:101340000CF6B54304FA0CF6354305604868C00056
:10135000A2D5D8F8000040F00100C8F80000D8F885
:10136000005005F0010500954FEA8E0500984FEA00
:101370009E0053F8206005F00C0C09FA0CF526EAE3
:101380000505274EB24508BF00260ED0254EB245B2
:1013900008BF012609D0244EB24508BF022604D05A
:1013A000224EB2450CBF0326042606FA0CF635433E
:1013B00043F82050F8434D68ED0295684CBF3D431B
:1013C000054095604D68AD02D5684CBF3D43054072
:1013D000D5604D685668AD034CBF47EA060500EA84
:1013E000060552E7BDE8F1878068084018BF012074
:1013F000C0B2704702B9090401617047000401409E
:1014000008000140181002400000111000001210E6
:1014100000002110000022100000311000003210E6
:1014200000080140000C0140001001400014014080
:1014300038B5040001D1012032BD00F089F818B997
:1014400000F082F902F057F96BE090F83D100129A5
:1014500001D001207047022180F83D100068DFF8BC
:10146000E820904218BFB0F1804F07D0DFF8DC10C1
:1014700088421CBFDFF8E020904209D1816801F06A
:101480000701062908D0016841F00101016003E06D
:10149000026842F0010202600020704701680A6A97
:1014A00041F211131A4202BF0A6A40F244431A423F
:1014B0002DE090F83D10012901D001207047022154
:1014C00080F83D100168CA6842F00102CA600068F5
:1014D000DFF87410884218BFB0F1804F07D0DFF8F2
:1014E0006C1088421CBFDFF87020904209D18168DF
:1014F00001F00701062908D0016841F001010160EF
:1015000003E0026842F0010202600020704703D14C
:101510000A68520852000A60012180F83D1000203C
:10152000704702206870211D206800F011F9012029
:10153000A872A870E87028716871A871E8712872A3
:1015400068726870002032BD002C01400004004029
:1015500004F13C05687870470008004070B5044607
:101560002068C5680669B10714D5AA0712D56FF0BF
:101570000201016101222277806910F0030F2046E9
:1015800002D002F0C9F903E002F0C7F900F07BF8DD
:1015900000202077700715D5690713D520686FF0F4
:1015A0000402026102212177806910F4407F204605
:1015B00002D002F0B1F903E002F0AFF900F063F8F5
:1015C00000202077300715D5290713D520686FF044
:1015D0000802026104212177C06910F0030F204640
:1015E00002D002F099F903E002F097F900F04BF80D
:1015F00000202077F00615D5E90613D520686FF096
:101600001002026108212177C06910F4407F204652
:1016100002D002F081F903E002F07FF900F033F824
:101620000020207706F0010105F00100014206D0FC
:1016300020686FF0010101612046FFF7E5FB3006ED
:1016400008D5290606D522686FF080001061204673
:1016500002F064F9700608D5690606D522686FF0B5
:1016600040001061204602F05AF9B0060AD5A906DA
:1016700008D522686FF0200010612046BDE8704058
:1016800002F04EB970BD204602F04BB970B5064667
:1016900006F13C0500242878012801D1022070BD04
:1016A0000120287002226A70DFF810013268936806
:1016B000034093600868020018BF102830D020282B
:1016C00018BF30282CD0402826D0502819D06028A8
:1016D0001BD0702806D0B0F5805F27D0B0F5005F32
:1016E00007D022E000F02BF83068816841F07701E4
:1016F00005E000F024F83068816841F480418160A1
:1017000014E000F018F850210BE0CA68496830680E
:1017100000F06DF8602104E000F00DF8402100E0D9
:101720000146306800F075F800E00124012068707F
:1017300000F00AF870BDCA684968306848E0CB68B4
:101740004A68896830686CE000212970204670473B
:1017500070B51B4E03681B4C1B4DB04218BFB0F157
:10176000804F03D0A84218BFA04209D14A6823F095
:1017700070031343B0421CBFB0F1804FA84201D0A8
:10178000A04203D1CA6823F4407313434A6923F08B
:10179000800313430360B0428B68C3620A688262AD
:1017A00002D10969094A1160012343610169CA072D
:1017B00003D5016949084900016170BD8800FFFF38
:1017C000002C01400008004000040040302C014083
:1017D00010B5036A046A64086400046223F00A0313
:1017E000846924F0F00444EA0214846123E010B513
:1017F000036A046A24F01004046223F0A0038469DD
:1018000024F4704444EA0234846143EA011303621D
:1018100010BD826822F07002114341F0070181601F
:10182000704710B5846824F47F442143114341EA92
:101830000321816010BD1943016210BD40EA010C13
:101840001CEB0C0F07D0884205D14FEA400C1CF16D
:10185000807F98BF8042704790EA010F40F142803C
:1018600081F00041421A3CBF801A89184FF0004CA9
:10187000C0F3C752FF2A24D0C1F3C75313B3D21AFF
:10188000D2F1190327DD4CEA01214CFA03F321EAD6
:101890000303D140C20D4CEA0020401834BF20EAB7
:1018A0000C004CEA5000D20553EA006373EB0C0CB9
:1018B00052EB1020420012F1807F38BF7047C00DFC
:1018C000C0057047490212BF9A4200EB5120F8E769
:1018D000D2F11703D9D5704790EA010F7FF5C2AF57
:1018E00081F00041431A4FF000423EBF5340C01AFE
:1018F000C91800BFD3095FEAD05C13EB400F34BFB7
:10190000B3EB410F40E07CEBD1530CD342EA012111
:1019100022D8D1EB402009D3400A28BF5FEA50010A
:1019200040EBCC507047401A15D04002B0FA80F21C
:10193000521C9040400A4FEA3C23B3EB026384BF41
:1019400000EB730007E040F400001A16DB07C2F159
:101950000102D04018437047182BFCDC31FA03F227
:1019600002FA03F3591A38BF42F00102D2EB4020C9
:101970003CBF4000ACF1010C5FEACC5CC20572F1E7
:1019800000414CEB5020704713EB400F0FD2C9427F
:1019900009D0ACEBD153022B03DB4902172BDDDD61
:1019A00070479143401AC042D5D10020704713EBD5
:1019B000410FD0D36FF0000070470000C0F3C75153
:1019C00081B1FF2906D0C110400721F0E04101F1AB
:1019D0006051704741020CBF40F4E0016FF00041DC
:1019E0000020704700F0004100020AD0B0FA80FCED
:1019F00000FA0CF001F16051A1EB0C5101EBD02188
:101A000040057047B0B581EA030C0CF0004C40F281
:101A1000FF7515EA11541DBF15EA1357AC42AF42CA
:101A200039E0E41923EA455343F48013C90241F035
:101A3000004141EA505EC7021100A7FB02020028E4
:101A40004FF00000EEFB01204FF00001E3FB072107
:101A500018BF42F00102401800214941E3FB0E018A
:101A6000A4F580640F0302D252004041494154F171
:101A700001046CDD470872F1004250F1000051EBA7
:101A80000451A1F580115CBF41EA0C01B0BD4CEAE4
:101A900005510020B0BD05EA1357AC4214BFAF4258
:101AA00041E050EA410E1CBF52EA430E02E061469B
:101AB0000020B0BD24423C441BD15FEA070EF6D0A3
:101AC000090302BF01460020AEF1140EB1FA81F7FE
:101AD000AEEB070401FA07FE0C37C7F1200100FA4C
:101AE00007F7C8404EEA000E23EA455343F480133B
:101AF000A2E733F00043B3FA83F704BFB2FA82FEE1
:101B000077440B3FE41BB7F1200E2FBF02FA0EF310
:101B1000BB40C7F1200E22FA0EFE38BF43EA0E0387
:101B2000BA40641C82E750EA410E14BF52EA430EE9
:101B30006FF000014FF4001717EB430F8ABF1946EF
:101B400017EB410FB5E74CEA05510020B0BDD4F1C9
:101B50000104B4F120070FDAC4F12007520828BFAE
:101B600042F0010210FA07F501FA07F7E1BF2A4334
:101B7000E0403843E1400FE0352C98DCC7F1200409
:101B800052EA400220FA07F218BF42F0010231FA8D
:101B900007F0A1400A43002172F1004250F1000019
:101BA00051EB0C01B0BD000001F000428B1AA3F113
:101BB0006051B1F5801F0ADBB1F17F6F1FD242EA9D
:101BC000C102C10071F1004142EB507070470B152A
:101BD000C3F10903212B10D2890241EA90518002FE
:101BE0000128494141F0004121FA03F0C3F12003EB
:101BF000994071F1004150417047100070476FF0FB
:101C0000000013EB103F5CBF000E42EAC05070476B
:101C10004FF0807C1CEB400F94BF1CEB410F05E0A4
:101C200040EA010C1CEB0C0F01D28142704718BF37
:101C3000884270474FF0807C1CEB400F94BF1CEB38
:101C4000410F05E040EA010C1CEB0C0F01D2884269
:101C5000704718BF8142704710B5FF2313EAD05474
:101C60001DBF13EAD1529C429A4239E0A41ADA0706
:101C700080EA0103134042EA012142EA0020421AAD
:101C80003CBF641E01EB4202090AB2FBF1FE01FBFC
:101C90001E221202B2FBF1F001FB10226EF30F20A4
:101CA0001202B2FBF1FE4EEA00207F3406DDFE2C6C
:101CB00024DA53EA500050EBC45010BDD4F10204B2
:101CC00001FB1E2240F08071192C1DDC21FA04F06A
:101CD000C4F12004A140114371F10042584110BDEC
:101CE0009C421ABF03EAD1529A420FE080EA010EE9
:101CF0000EF00043400004D0490016D143F0FF40ED
:101D000010BD490008BFD343180010BD9C4205D147
:101D1000D21AF7D001F00041484010BD4A0212BF6C
:101D20000846484000F0004010BD4AB90902B1FA27
:101D300081F2914044B1A418C00140F000409EE7F8
:101D4000C90141F0004152420002B0FA80F4A040C3
:101D5000141B94E7C0F3C7517E390EDDC217D1F1D1
:101D6000200106DD000240F00040C8401044504011
:101D70007047D04380F0004070470020704700005B
:101D8000C2175040801AB0FA80F10AD08840D1F1D1
:101D90009D01D20742EAC151020672F1004241EBB5
:101DA00010207047FF2212EAD05C1DBF12EAD15307
:101DB000944593422BE09C44D30780EA01021A40E9
:101DC00043EA002043EA0121A1FB0030C04238BFB2
:101DD00040007CF17F010BDBFE294ADA5B0842EA16
:101DE000C15153EA006373F1004C51EB102070476E
:101DF000D1F1080CDCF120012FDB5B0810FA01F1B6
:101E00000B4320FA0CF073F10041504170479445A8
:101E10001CBF02EAD153934280EA010202F0004261
:101E20001DD0400019D0490017D05BB9634514D0CC
:101E30000902B1FA81F39940BCEB030CC00140F0F8
:101E40000040C1E70002B0FA80FC10FA0CF0B3EBDE
:101E50000C0CC90141F00041B6E71000704740008A
:101E60000AD0490008D010F1807F94BF11F1807F23
:101E700002E042F0FF407047D04370474FF4001C2F
:101E80001CEB410F0ED81CEB430F0DD851EA030C8D
:101E900004D58B4208BF824204D370478B4208BFEF
:101EA000824201D910001900704700002DE9704CE2
:101EB0004A005215521C84B001D10B036CD1CA0FD9
:101EC00014BF0426022621F000450446DFF8D0B0F6
:101ED0000020594622462B4600F0B6FCCDE9000111
:101EE00000225B462046294601F01CFDDDE9002367
:101EF000FFF788FD00F068FACDE902014FF0000A13
:101F000028492948002907D54FF00043BAEB0002C1
:101F10008B41CDE9002301E0CDE9000129002046F5
:101F200005D54FF00043BAEB000063EB0101DDE99A
:101F300000238B4207DB01DC824204D3DDE902236C
:101F4000204629461AE0BBF1000F44BF4FF0004184
:101F500061EB0B0B2900204605D54FF00043BAEB8F
:101F6000000063EB01018B4510DB01DC82450DD3E2
:101F7000DDE9020186F0020622462B4600F09EFAB9
:101F8000324604B0BDE8704C01F08ABDAFF300806A
:101F90004FF0FF306FF0004104B0BDE8708C00BF1F
:101FA0000000F03F9EA0E63FCD3B7F662DE9F04D5F
:101FB00004460D469046DFF88003DFF88013224682
:101FC0002B46FFF71FFD0F4627F00041DFF8702377
:101FD000DFF8703301F06CFE064662D2DFF868333A
:101FE00007F000410B430022394601F09BFC01F051
:101FF00077FE5FEA000A51D001F090FE0022D34B39
:10200000FFF700FD06460F464FF0A040D04932468C
:102010003B46FFF7F7FC02460B462046294600F0F8
:1020200013FC04460D464FF0C040CA4932463B46B9
:10203000FFF7E8FC02460B462046294600F004FC68
:1020400004460D464FF00050C34932463B46FFF769
:10205000D9FC02460B462046294600F0F5FB044613
:102060000D460020BD4932463B46FFF7CBFC0246F9
:102070000B462046294600F0E7FB04460D464FF08C
:102080000050B74932463B46FFF7BCFC02460B46C0
:102090002046294600F0D8FB04460D460AF003000E
:1020A000A7E068004015401C0CD168004015401C9A
:1020B00002D1290340F03C814FF0FF306FF0004126
:1020C000BDE8F08D24F0000035F0004108BF002885
:1020D00005D1B8F1000F00F02B81A24D28E139465F
:1020E000994B07F00047304600223B4301F01AFCB1
:1020F0000F464900064641EAD0714000002908BF5A
:10210000002817D040F23342A2EB5150352804DBAF
:1021100006F0000607F000470CE0202803DD203819
:10212000C740874000E001D1002603E00028C4BF7B
:10213000C640864026F0000037F0004108BF002866
:1021400051D00020814932463B46FFF75BFC824676
:102150008B464FF0A0407E4952465B46FFF752FC4B
:1021600002460B462046294600F06EFB04460D460B
:102170004FF0C040774952465B46FFF743FC0246AA
:102180000B462046294600F05FFB04460D464FF003
:102190000050714952465B46FFF734FC02460B463D
:1021A0002046294600F050FB04460D4600206B49AE
:1021B00052465B46FFF726FC02460B462046294660
:1021C00000F042FB04460D464FF000506449524671
:1021D0005B46FFF717FC02460B462046294600F0F7
:1021E00033FB04460D463046394601F079FD00F0D8
:1021F000030025F000410029804405D500224FF05E
:102200000043101B63EB010100225FF0795304D5FA
:102210004FF00047921A67EB0303994208F0010A56
:1022200005DABAF1000F7BD000244E4D78E022464B
:102230002B4620462946FFF7E5FBBAF1000F06467C
:102240000F4631D04848494932463B46FFF7DAFB52
:10225000474A484B01F066FB32463B46FFF7D2FB4C
:10226000454A464B01F05EFB32463B46FFF7CAFB50
:10227000434A444B01F056FB32463B46FFF7C2FB54
:10228000414A424B01F04EFB32463B46FFF7BAFB58
:102290006FF051023E4B01F045FB32463B46FFF7E3
:1022A000B1FB00222F4B37E032463B462046294601
:1022B000FFF7A8FB82468B463648374932463B46F5
:1022C000FFF7A0FB354A364B01F02CFB32463B466C
:1022D000FFF798FB334A344B01F024FB32463B4670
:1022E000FFF790FB314A324B01F01CFB32463B4674
:1022F000FFF788FB2F4A304B01F014FB32463B4678
:10230000FFF780FB2D4A2E4B01F00CFB52465B463B
:10231000FFF778FB22462B4601F004FB04460D46EE
:102320005FEA887004D585F000412046BDE8F08D55
:1023300020462946BDE8F08D83C8C96D305FE43F73
:102340000000A0FFFFFFDF410000E03F0000303E43
:10235000FB21B941B410114026A6513E5C14D33C78
:102360009A833B3B0000F03F09260A1039BA213E10
:102370003BA861C6F97D92BE63AC30909F01FA3EE6
:10238000F6FB51166CC156BFB10255555555A53FC8
:10239000FFFFDFBFB08F2FC310D8E53D8F0C73A1B7
:1023A000E1E55ABE4DADE44FE31DC73E3EE3B5192E
:1023B000A0012ABFFAF010111111813F4255555565
:1023C0005555C5BF0022F1E540F2FF7C0B0D4DD005
:1023D000634566D230B421EA035141F4801103F21F
:1023E000FD3C5FEA5C0C01D300184941890041EAD9
:1023F000907180004FF440140023E202D50AB1F539
:10240000100107D46D081DD2091B64190018494139
:10241000491BF7D56D080AD20919641B00184941F8
:10242000491BEFD56D08F7D301E0520817D0C0184B
:1024300061419B1AAC4100184941801AA941F4D46A
:1024400052080AD0C01AA1419B186C41001849419A
:10245000801AA941E9D45208F4D15B1C6C4161088F
:102460004FEA330001EB0C5130BC704750EA0103D6
:10247000FBD030B4B1FA81F311B9B0FA80F41B1972
:102480000B3BB3F120042FBF00FA04F19940C3F1D4
:10249000200420FA04F438BF21439840D3F101030B
:1024A0009DE7634514BF50EA410CDEE711F5801F3C
:1024B000DBD8D943AFF3008070470000F0B540F29D
:1024C000FF7581EA030C0CF0004C15EA11541DBF96
:1024D00015EA1357AC42AF42E5E0BC41C1F313012A
:1024E000C3F31303801A994143F4801304D2641E8A
:1024F0004000494180185941C90241EA5051B1FB9D
:10250000F3F603FB1611A2FB0675D7EBC020A94119
:1025100002D2761E80185941C90241EA5051B1FBDE
:10252000F3FE03FB1E11A2FB0E75D7EBC020A941E1
:1025300003D2AEF1010E80185941890241EA90514F
:10254000760546EA8E2EB1FBF3F603FB1611A2FBCD
:102550000675D7EB8020A94102D2761E801859411A
:10256000C90241EA50514EEA060EB1FBF3F603FBF5
:102570001611A2FB0675D7EBC020A94102D2761E28
:1025800080185941C90241EA5051B1FBF3F703FBEE
:102590001711A2FB0735D3EBC020A94167F1000753
:1025A0000CBF004247F0010766F3D5274FEA1E3102
:1025B000B80814F5806412DDBD0775F1004250EBD8
:1025C0000E5051EB045111F5801F5CBF41EA0C0124
:1025D000F0BD4CF07F6141F0E0410020F0BDBD074F
:1025E0006D0840EA0E5041F48011D4F10104B4F1B9
:1025F00020060ADAC4F120060200E04001FA06F3E0
:10260000E1401843B24015430EE0342C13DCC6F110
:10261000200445EA40056D0820FA06F2154321FA28
:1026200006F0A1400D43002175F1004250F1000079
:1026300051EB0C01F0BD00205FEA0C01F0BDCFB9F9
:1026400092185B41B3FA83F704BFB2FA82F6BF195E
:102650000B3FB7F120062FBF02FA06F3BB40C7F1CC
:10266000200622FA06F638BF3343BA401CB1E419FB
:10267000641E33E77F4231F00041B1FA81F404BFB8
:10268000B0FA80F6A4190B3CB4F120062FBF00FA73
:1026900006F1A140C4F1200620FA06F638BF314306
:1026A000A0403C1B1AE7AC421ABF05EA1357AF42E1
:1026B00012E050EA41061CBF52EA4306BFE750EA67
:1026C0004107304661461CBF41EA0551F0BD52EA60
:1026D000430C08BFC143F0BD00204FF4001616EBB9
:1026E000410F98BF16EB430F08BF16EB410F24BFF5
:1026F000C14305E016EB430F0CBF61464CEA0551A0
:10270000F0BD00002DE9704C044648004015401C07
:1027100084B00D4601D1090320D124F0000235F028
:10272000004308BF002A19D0E80F1ABF25F0004562
:1027300008260026290005D500224FF00043101B73
:1027400063EB010100225FF0795304D54FF00040A4
:10275000921A60EB0303994203DA3EBB20462946F6
:1027600068E09246DFF8D4B00020594622462B4656
:1027700000F06AF8CDE9000100225B4620462946B8
:1027800001F0D0F8DDE90023FFF73CF9FFF71CFE6C
:10279000CDE902012A492B4800290BD54FF000430F
:1027A000BAEB00028B41CDE9002305E085F0004142
:1027B00020463FE0CDE900012900204605D54FF035
:1027C0000043BAEB000063EB0101DDE900238B421B
:1027D00007DB01DC824204D3DDE9022320462946DF
:1027E0001AE0BBF1000F44BF4FF0004161EB0B0B4F
:1027F0002900204605D54FF00043BAEB000063EBFB
:1028000001018B4510DB01DC82450DD3DDE90201BE
:1028100086F0020622462B46FFF750FE324604B0F1
:10282000BDE8704C01F03CB9AFF300804FF0FF30D1
:102830006FF0004104B0BDE8708C00000000F03F74
:102840009EA0E63FCD3B7F6670B44FF0004591EA15
:10285000030F41F16F806B40841A71EB030603D2C2
:10286000001BB141121973414FF4001C1CEB410FC6
:1028700034BF7CEB430442E00C0DA4EB1356352E21
:102880004FDC45EAC323DB0A45EAC121C912B6F190
:1028900020050DDD63FA05F6EB4086EA03051242DA
:1028A00018BF45F00105C01851F100010CD213E02A
:1028B00062FA06F5F2405540F3415A40B340F34006
:1028C0005A408018594107D349085FEA30005FEA4F
:1028D000350528BF45F0010501F58011420875F165
:1028E000004250F1000041EB04514E0016F5001F6C
:1028F00070BC38BF70470020090D090570471CEBFC
:10290000410F10D252EA43060BD0BCEB410F05D861
:102910000C0DAB43661E342EB6DD02E0AB438018CF
:10292000594170BC704770BC704700004FF4001CE8
:102930001CEB410F0ED81CEB430F0DD851EA030CD2
:1029400004D5994208BF904204D37047994208BF0A
:10295000904201D910001900704700002DE9FE4C8B
:10296000044658004015401C0D463FD068004015F5
:10297000401C3BD0C80F1ABF25F000450826002692
:10298000D80F1CBF23F0004386F00606190008D5B7
:1029900000204FF0004B801A6BEB030BCDE9000BCE
:1029A00001E0CDE900232900204605D500274FF09E
:1029B000004B381A6BEB0101DDE900AB8B4509DCFC
:1029C00001DB824506D21046194622462B46FFF708
:1029D00075FD3AE022F0000033F0004108BF002806
:1029E00035D020462946FFF769FD30E04800401504
:1029F000401C04D1090302D02046294630E058008B
:102A00004015401C04D1190302D01046194627E096
:102A100058004015401C09D1190307D16800401522
:102A2000401C03D1290308BF0C4901D0002000211C
:102A3000EE0F18BF0826DA0F18BF86F006066A00E8
:102A40005215521C03D12B0301D186F002063246E7
:102A500003B0BDE8F04C01F023B800000000F03FE7
:102A600003B0BDE8F08C000038B5040001D10120AE
:102A700032BD00F019F808B900F01AF800F01DF89E
:102A800000F025F8FFE7416100F001F832BD206851
:102A9000C16841F40051C160002068602021697064
:102AA000A97000216163704704F1400568787047A0
:102AB00000212970204600F086BE2420687020681E
:102AC000C16821F40051C160204600F0D0BA2068EE
:102AD000016921F4904101612068416921F02A01D6
:102AE00070472DE9FC4106460D4696F84100202826
:102AF00014461F4640D10DB1200001D101203CE019
:102B000000207064212186F8411000F0D1FDB484CA
:102B10008046F48400F033F804BF306900281ABFFF
:102B20002C460025002412E000228021304600F0CF
:102B3000AAF9E0B93068002C12BF14F8011B35F86F
:102B4000021BC1F308014160F08C411EF184434631
:102B5000F08C00970028E7D100224021304600F099
:102B600092F920B9202086F84100002005E02020BD
:102B700086F84100032000E00220BDE8F681B0683D
:102B8000B0F5805F704710B500F130039C7C202CBD
:102B90000AD109B1140001D1012010BD00241C602C
:102BA000BDE8104000F0AAB9022010BD216801F173
:102BB000140252E8001F206800F1140321F04001C4
:102BC00043E80010002870477CB5044621680B6874
:102BD000CD684A6913F00F0007D1980661D5AA069F
:102BE0005FD52046BDE87640DAE1D00702D415F47F
:102BF000907F56D0D80705D5E90503D5606C40F025
:102C000001006064580705D5D10703D5606C40F01A
:102C100002006064980705D5D10703D5606C40F0C9
:102C200004006064180707D5A90601D4D00703D5AE
:102C3000616C41F008016164606C002830D0980636
:102C400004D5A90644BF204600F0AAF920684069CF
:102C5000616C0A0701D440061DD5204600F07DF9BD
:102C600020684169480611D5FFF7A0FFFCD1E06B51
:102C700060B10FF221314163E06B01F086F800286A
:102C80000ED0E06B416BBDE87C4008472046BDE8B4
:102C9000764001F0D9B8204601F0D6F800206064F3
:102CA00073BD206B012804F1410240F08C80D806EE
:102CB00000D5EE0640F18780002300930D68009553
:102CC0004B68009300984969480640D5E16B086855
:102CD000406880B20028E3D0A38D9842E0DAE08516
:102CE000886920282DD0216801F10C0050E8001FD0
:102CF000236803F10C0521F4807145E800100028D9
:102D0000F1D100F09CF8490800F11405490045E8AC
:102D100000100028F5D100F092F800F1140521F020
:102D2000400145E800100028F5D120205070002116
:102D3000216300F08AF800F0FCF8FAD1E06B00F0B3
:102D4000FFFF02206063A18DE08D091A35E0A08DA0
:102D5000E18D411AE08D00281CBF88B200286DD09B
:102D6000206800F10C0353E8003F00F10C0623F447
:102D7000907346E800300028F2D1206800F1140377
:102D800053E8003F5B0800F114065B0046E80030A2
:102D90000028F2D12020507000222263206800F128
:102DA0000C0252E8002F00F10C0522F0100245E859
:102DB00000200028F2D1022060632046BDE87C405C
:102DC00089B201F042B8180629D52E0627D5107809
:102DD000212833D1A068B0F5805F04BF20690028A6
:102DE00008D1206A0288C2F308024A60206A811C66
:102DF000216204E0206A421C226200784860E08C74
:102E0000401EE08480B2C8B92068C16821F080010A
:102E1000C1602068C16841F04001C16073BD5806BF
:102E20000CD56B060AD5C86820F04000C860202188
:102E300011702046BDE8764001F008B873BD2068E7
:102E400000F1140151E8001F7047206800F10C01E7
:102E500051E8001F00F10C037047026802F10C01F9
:102E600051E8002F036803F10C047047016801F179
:102E7000140252E8002F520801F11404520044E8F1
:102E80000021002970472DE9FC41089C05460E46AB
:102E900090461F46286801683140B1420CBF0120AE
:102EA0000020404528D114F1010FF3D000F000FCC0
:102EB000C01B844200D314B90320BDE8F681296801
:102EC000C8684207E6D5802E18BF402EE2D00868B9
:102ED0000207DFD5002300930A6800924968009139
:102EE0000098284600F039F805F1400008214160BB
:102EF000002202700120E0E70020DEE78162828587
:102F0000C28500214164222280F84220016921B15A
:102F10000168CA6842F48072CA6001684A6942F076
:102F200001024A610068C16841F02001C1600020CF
:102F3000704721F0100143E800100028704742F06C
:102F4000400244E8002100297047016801F10C02A9
:102F500052E8002F01F10C04704710B5FFF7F5FFA0
:102F600022F49072FFF7EDFFF8D1FFF77FFFFCD15D
:102F7000016B012906D1FFF770FF22F01002FFF765
:102F8000E0FFF8D1202180F842100022026310BD3A
:102F900000000000406A0021C185C18400F054BFD8
:102FA0001CB590F84210222951D18168826AB1F58E
:102FB000805F0AD1016969B903685968C1F30801E2
:102FC0001180826A911C81620FE0002904BF0169AF
:102FD000002902D10368596803E00168496801F0DB
:102FE0007F011170816A4A1C8262C18D491EC185B0
:102FF00089B251BB0168CA6822F02002CA60016828
:10300000CA6822F48072CA6001684A695208520094
:103010004A61202180F8421000224263016B01299D
:1030200011D1026300F015F802681168CB0606D5CD
:103030000024009413680093526800920099818DD7
:1030400000F003FF01E0FDF7E6FE002016BD0220C0
:1030500016BD016801F10C0252E8002F01F10C04C9
:1030600022F0100244E800210029F2D1704710B587
:10307000044622681169E06821F44051014311615E
:10308000D3681849A0680B402169034360690B436A
:103090000343D3605169A06921F440710143516138
:1030A00011498A4202D100F0A2FA01E000F097FA39
:1030B0006268192148439200B0FBF2F16423B1FB2E
:1030C000F3F203FB121109013231B1FBF3F000F00E
:1030D000F00101EB0211226800F00F00401890602F
:1030E00010BD0000F3E9FFFF0038014080B507483C
:1030F000016841F010010160032000F0B6FE0F20CE
:1031000000F008FF00F0DAFA002002BD00200240C3
:1031100070B500F13C031A78012A01D1022070BD7C
:1031200001221A7002245C7005686E68AC680A6837
:1031300026F0700616436E6002680B48824218BF84
:10314000B2F1804F05D0094882421CBF084DAA4207
:1031500004D1486824F0800404439460012159702C
:103160000020187070BD0000002C014000040040D9
:103170000008004010B5044610460A4601462046A5
:1031800000F062FA204610BD2DE9F843040016D085
:103190002078DFF87064C10713D5706800F00C0068
:1031A000042807D0706800F00C00082841D170682E
:1031B000C1033ED53068810303D56068002800F064
:1031C00064812078DFF84C74810719D5706810F09D
:1031D0000C0F07D0706800F00C00082861D17068EF
:1031E000C1035ED43068810703D52069012840F00F
:1031F0004C813168606921F0F80141EAC001316019
:103200002178080740F18180A069DFF80C140028BC
:1032100000F0A68001220A6000F04AFA0546706AB2
:10322000810763D400F044FA401B0228F7D9032039
:103230002EE16068B0F5803F04D1306840F4803002
:10324000306014E008B930680AE0B0F5A02F3068AB
:1032500006D140F480203060316841F4803105E0CF
:1032600020F480303060316821F480213160606862
:1032700058B100F01DFA054630688103A1D400F072
:1032800017FA401B6528F7D3D1E700F011FA05467D
:103290003068810395D500F00BFA401B6528F7D301
:1032A000C5E72069A8B10121396000F001FA05469F
:1032B0003068810705D400F0FBF9401B0228F7D9DC
:1032C000B5E73068616920F0F80040EAC10030607D
:1032D00096E7386000F0ECF90546316888078FD52D
:1032E00000F0E6F9401B0228F7D9A0E7DFF8180341
:1032F0000168C9084FF47A72B1FBF2F2009200BF84
:103300000098411E00280091F9D1207841076ED520
:10331000F0690025C10009D4F06940F08050F061E7
:103320000125F06900F0805000900098DFF8EC82F1
:10333000D8F80000C10520D4D8F8000040F480700F
:10334000C8F8000000F0B4F98146D8F80000C105C3
:1033500013D400F0ADF9A0EB09006528F5D366E7BA
:10336000086000F0A5F90546706A8107CDD500F028
:103370009FF9401B0228F7D959E7E068012808D0D7
:1033800008B9306A09E00528306A06D140F0040027
:103390003062306A40F0010005E0400840003062D1
:1033A000306A20F00400306241F28938E06860B190
:1033B00000F07EF98146306A810713D400F078F975
:1033C000A0EB09004045F6D331E700F071F98146E2
:1033D000306A810706D500F06BF9A0EB0900404583
:1033E000F6D324E71DB1F06920F08050F061E06968
:1033F00000284CD0716801F00C01082938D002284F
:103400002AD100F047F805463068810105D500F063
:103410004FF9401B0228F7D909E7206AB0F5803F31
:1034200005D17168A06821F40031014371607268B0
:10343000206A616A22F4741202430A437260012016
:1034400000F029F804463068810120D400F030F9FA
:10345000001B0228F7D9EAE600F01CF804463068A1
:10346000810114D500F024F9001B0228F7D9DEE60B
:1034700001280AD07068226A00F48031914202BFAC
:1034800000F47010616A884201D0012000E0002041
:10349000BDE8F2830020386600F00AB92DE9F0415A
:1034A000040088464ED05E4E00F077F802D200F05D
:1034B0006FF847D12068534D810712D5400703D5D7
:1034C000696841F4E06169602078010703D56868A4
:1034D00040F4605068606968A06821F0F001014321
:1034E00069602178C80725D56068012802D129685C
:1034F0008A0303E00228296802D18A0102D421E06C
:103500008A071FD56968890840EA8100686000F071
:10351000CFF807466868616800F00C00B0EB810FD7
:1035200008D000F0C5F8C01B41F289318842F1D3C0
:1035300003202BE0306800F00700804504D200F043
:1035400027F801D0012021E02078410705D56A68DD
:10355000E06822F4E06202436A602178080706D539
:103560006968206921F4605141EAC001696000F096
:1035700019F86A682B49244BC2F30312895CC840CE
:1035800018602348006800F0C5FC0020BDE8F08109
:103590003168C90848EAC1013160306800F00700AD
:1035A00040457047204919480A6802F00C03082B6F
:1035B00000D0704710B500BF1EA4C2F38343D203EE
:1035C000E35C08D5096858431EA3C1F340415A5C27
:1035D000B0FBF2F010BD18461449484310BD0A482C
:1035E000114A006813681249C3F3022206E0064834
:1035F0000D4A006813680E49C3F3C222895CC840B3
:1036000070470000001002408C00002000127A0079
:1036100088000020000042428004424200700040C6
:1036200000200240C43F00080410024000093D0091
:10363000FC40000802030405060708090A0B0C0DEC
:103640000E0F10100102000062F30F2262F31F42FE
:10365000401810F0030308D0C91A1FD3DB0748BF76
:1036600000F8012D28BF20F8022D130030B41446B5
:103670001546103928BF20E93C00FAD8490728BF71
:1036800020E90C0048BF40F8042D890028BF20F82D
:10369000022D48BF00F8012D30BC7047C91818BF73
:1036A00000F8012DCB0728BF00F8012D704700005E
:1036B00001484068704700BF800000208C4881B0FE
:1036C000016841F001010160026802F0010200920C
:1036D0000099426842F080524260406800F0805099
:1036E000009000988348016821F0E06141F000718A
:1036F000016001B0704780B500F060F827D108681C
:1037000040F4006008600022096801F40061009143
:1037100009210098182000F0B5FB182000F0CFFB1D
:1037200000220821192000F0ADFB192000F0C7FB92
:10373000002207211A2000F0A5FB1A2000F0BFFB91
:10374000002206211B2000F09DFB1B2031E0B0F180
:10375000804F0FD1486840F001004860002248685F
:1037600000F001000090052100981C2000F08AFB69
:103770001C201EE0604A904209D1486840F00200D7
:103780004860486800F002000090009801BD5B4A64
:10379000904212D1486840F0040048600022486816
:1037A00000F0040000900A2100981E2000F06AFB3F
:1037B0001E20BDE8024000F082BB01BD0068504AF7
:1037C0004B499042704730B585B004461022002125
:1037D0006846FFF7CFFC21684A4A4B4D4448914266
:1037E0004FF480641CD1016841F48041016002689B
:1037F00002F48042049200F066F84FF4007100F089
:1038000068F8002101910291009469462846FDF76D
:103810002BFD00220B21252000F034FB25204EE05B
:103820003A4A91421CD1416841F4003141604168FB
:1038300001F40031049100F046F8042100F049F849
:103840000820002100900191029128466946FDF769
:103850000BFD00220C21262000F014FB26202EE078
:103860002B4A91422DD1416841F480214160416849
:1038700001F4802104910499026842F00802026078
:103880000222036803F008030493049900940321BF
:103890000391019269461F4C2046FDF7E5FC4FF469
:1038A0000060002100900191029120466946FDF7D9
:1038B000DBFC00220D21272000F0E4FA272000F095
:1038C000FEFA05B030BD0499026842F004020260BD
:1038D0007047006800F004000490022204980091F0
:1038E00001920321039128466946FDF7BDBC000003
:1038F000181002400400014000040040000800408D
:10390000002C014000380140000801400044004004
:1039100000480040000C01407047704770477047F6
:103920007047704770B44FF0004591EA030F7EF581
:1039300093AF6B40841A71EB030604D26E40001BF8
:10394000B141121973414FF4001C1CEB410F34BFFD
:103950007CEB430683E00C0DA4EB1356362E00F3EC
:103960007C80012E45EAC32341DC43EA525312BF57
:10397000D20292025B08240545EAC12141EA505176
:10398000D2EBC020994125D407D1B0FA80F610FAC5
:1039900006F162D00020203608E0B1FA81F6B1408D
:1039A000C6F1200220FA02F21143B0404FEAF4744B
:1039B000B4EB465434F001064FEA74040AD8D6F545
:1039C0000016760D04F00044F04061FA06F2504013
:1039D000F1404840C00A40EA415021F0004128BF70
:1039E0005FEA500550F1000044EBD12135E0DB0ADD
:1039F00045EAC121C90AB6F120050EDD42EA0242BC
:103A0000120CC5F1200603FA06F6EB4042EA060561
:103A10006D42984161F100010DE062FA06F5F24055
:103A2000554063FA06FC82EA0C02F3405A406D42AC
:103A3000904161EB030111F4801F05D1641E620502
:103A400002D06D004041494121F48011430875F1D5
:103A5000004350F1000041EB045170BC70471CEB77
:103A6000410F15D223F0004352EA43060BD04FEA30
:103A70004C0CBCEB410F04D80C0D661E342EB7DD88
:103A8000EBE7801A994150EA410608BF0021E4E7BC
:103A900008BF1CEB430F28BF6FF00001DDE70000FB
:103AA0002DE9F04D5FEA0108044605D500264FF0E8
:103AB0000047301A67EB01010026664F04D54FF02E
:103AC0000043B61B63EB0707B94208BFB042154677
:103AD00003D1614CDFF884819FE06149614800298E
:103AE00004D54FF00043301A63EB01015FEA08038D
:103AF000224604D54FF00047B21A67EB0303994200
:103B000020DC01DB90421DD2574E584F32463B46D7
:103B100020464146FDF776FF0022554BFFF702FF96
:103B200082468B4632463B4620464146FFF7FAFE28
:103B300002460B4650465946FEF7C0FC04468846EE
:103B400045F0010500225FF0795328F0004120463E
:103B500008D54FF00047921A77EB030302D5101AED
:103B600067EB01018B4258DC01DB824255D22246D1
:103B7000434620464146FDF745FF06460F4632467E
:103B80003B4620464146FDF73DFF82468B4639487D
:103B9000394932463B46FDF735FF384A384BFFF787
:103BA000C1FE32463B46FDF72DFF364A364BFFF746
:103BB000B9FE52465B46FDF725FF22464346FFF716
:103BC000B1FE044688463148314932463B46FDF74E
:103BD00019FF304A304BFFF7A5FE32463B46FDF752
:103BE00011FF2E4A2E4BFFF79DFE32463B46FDF756
:103BF00009FF2C4A2C4BFFF795FE32463B46FDF75A
:103C000001FF0022134BFFF78DFE02460B462046B4
:103C10004146FEF753FC04468846A80748BF88F093
:103C2000004815F007000CD0204979447E3101EBA3
:103C3000C0024346D2E900012246FFF773FE044664
:103C40008846280747BF88F0004120462046414665
:103C5000BDE8F08D0000F03F182D4454FB21E93FF2
:103C60001426D13F56CD9E5EAA4C58E87AB6FB3F4B
:103C70000000F0BF845D57134B57B03FB2934C190F
:103C8000ED5EE43FBEDE02B90240F83FDE39028F4E
:103C9000C7C0743F8AAB1283000CC83F24D7E50825
:103CA000B6D8F03F0F34580E5895FD3F2C03000056
:103CB0004FF4001C1CEB410F94BF1CEB430F09E0B9
:103CC00041EA030C50EA4C0C52EA0C0C03D2994224
:103CD00008BF9042704714BF8B4282427047000079
:103CE000C1F30A5340F2FE329B1A14DDD3F12003D4
:103CF0004FEAE17208DDC90241EA505141F000404B
:103D0000D84080185040704703F2E13010B1D243E0
:103D100082F000407047002070470000C11768B172
:103D20004840401AB0FA80F29040D21CC907C2F550
:103D3000846241EA025202EBD02140057047000044
:103D400010B590F82110022900F1380206D00423A2
:103D50001360002180F82010012010BD01680B685D
:103D600023F00E030B60012301680C6864086400F3
:103D70000C60916852688B405360012180F82110DB
:103D8000002280F82020002010BD38B590F82120B6
:103D90000024022A00F1340103D0042048600124E9
:103DA0003BE00268136823F00E0313600268DFF83B
:103DB0007C3015686D086D00156002689A4208BF76
:103DC000012222D0DFF868309A4208BF10221CD0AE
:103DD000DFF860309A4208BF4FF4807215D0DFF8E8
:103DE00058309A4208BF4FF480520ED0DFF84C3062
:103DF0009A4208BF4FF4803207D0DFF844309A422D
:103E00000CBF4FF480124FF08072DFF838301A6028
:103E100000F005F8096801B18847204632BD01224B
:103E200080F8212080F82040704700000800024000
:103E30001C00024030000240440002405800024092
:103E40006C00024004000240704770477047000059
:103E50000901020002D4294881547047284B02F01E
:103E60000F021A4402F8041C7047264B19684FF6DB
:103E7000FF020002114000F4E060084322490843B9
:103E80001860704770B51F4B1C68C4F302230124EF
:103E9000C3F10705052D2EBF0F2504FA05F56D1E8C
:103EA0001E1D072E34BF0023DB1E2940994004FA53
:103EB00003F3BDE870405B1E1A401143C8E70100E0
:103EC00007D4012200F01F01104B8A40400943F83B
:103ED0002020704710B5401EB0F1807F01D3012033
:103EE00010BD0B4C60600F214FF0FF30FFF7B0FFAB
:103EF0000021A16007202060002010BD00E400E048
:103F000018ED00E00CED00E00000FA0500E100E033
:103F100010E000E038B50D4D0D4B2A7804464FF403
:103F20007A711868B1FBF2F2B0FBF2F0FFF7D2FF42
:103F300050B9102C08D2002221464FF0FF30FFF775
:103F4000A1FFAC60002032BD012032BD8000002006
:103F50008C000020FEE7FEE7FEE7FEE7FEE7704785
:103F60007047704700F024B801E0000000BF0A4825
:103F7000FDF7F4BAFBE7FAE70848FDF7EFBA08489F
:103F8000FDF7ECBA0748FEF71FBE0748FEF71CBE58
:103F90000648FEF719BE000020010020F8010020AD
:103FA000B00100201000002090000020D800002068
:103FB00002494A68087882184A60704780000020E9
:103FC0007047000000000000000000000102030430
:103FD00006070809000000000000000000000000C3
:103FE00066732D3852C1E03F182D4454FB21F93F30
:103FF00066732D3852C1F03F182D4454FB21F93F10
:1040000066732D3852C10040182D4454FB210940DD
:104010003FD038C6A6F1044030B501688468421824
:10402000416802EB5103C90703D54C4401E0491C28
:1040300005D19A420AD012F9011B12F8015B00293E
:1040400004F8015BF3D4491EF7D5F2E70C3030BD1C
:1040500010B5074979441831064C7C44163404E005
:104060000A68081D114488470146A142F8D110BDD5
:1040700008000000240000008FD1FFFFB001000005
:10408000900000200000000091FFFFFF00010000F1
:10409000400000000000002000F00DF8002801D0D2
:1040A000FFF7D6FFAFF300800020AFF30080FCF7EE
:1040B000D3FE00F002F80120704700F001B80000C4
:1040C0000746384600F002F8FBE7000080B5AFF382
:1040D0000080024A11001820ABBEFBE72600020058
:1040E0000148804701480047C13F0008F1400008EF
:1040F000AFF30080AFF30080FFF7CEFF00000000B9
:1041000001020304FFF7FEBFFFF7FEBFFFF7FEBF8C
:10411000FFF7FEBFFFF7FEBFFFF7FEBFFFF7FEBFD3
:10412000FFF7FEBFFFF7FEBFFFF7FEBFFFF7FEBFC3
:10413000FFF7FEBFFFF7FEBFFFF7FEBFFFF7FEBFB3
:10414000FFF7FEBFFFF7FEBFFFF7FEBFFFF7FEBFA3
:10415000FFF7FEBFFFF7FEBFFFF7FEBFFFF7FEBF93
:10416000FFF7FEBFFFF7FEBFFFF7FEBFFFF7FEBF83
:10417000FFF7FEBFFFF7FEBFFFF7FEBFFFF7FEBF73
:10418000FFF7FEBFFFF7FEBFFFF7FEBFA20001482B
:1041900043EE00056B4300005443FC00044F4B000A
:0C41A0000001F9000010FC0002127A007F
:04000005080040F1BE
:00000001FF
